{
  "contractName": "ABI",
  "abi": [
    {
      "constant": true,
      "inputs": [
        {
          "name": "_data",
          "type": "bytes"
        }
      ],
      "name": "decode",
      "outputs": [
        {
          "name": "",
          "type": "uint256"
        },
        {
          "name": "",
          "type": "bytes32"
        }
      ],
      "payable": false,
      "stateMutability": "pure",
      "type": "function"
    },
    {
      "constant": true,
      "inputs": [
        {
          "name": "toAmount",
          "type": "uint256"
        },
        {
          "name": "checkpoint",
          "type": "bytes32"
        }
      ],
      "name": "encode",
      "outputs": [
        {
          "name": "",
          "type": "bytes"
        }
      ],
      "payable": false,
      "stateMutability": "pure",
      "type": "function"
    }
  ],
  "bytecode": "0x6102fc610028600b82828239805160001a607314151561001b57fe5b30600052607381538281f3fe730000000000000000000000000000000000000000301460806040526004361061005d576000357c0100000000000000000000000000000000000000000000000000000000900480633915d06014610062578063e5c5e9a314610113575b600080fd5b6100986004803603604081101561007857600080fd5b8101908080359060200190929190803590602001909291905050506101e9565b6040518080602001828103825283818151815260200191508051906020019080838360005b838110156100d85780820151818401526020810190506100bd565b50505050905090810190601f1680156101055780820380516001836020036101000a031916815260200191505b509250505060405180910390f35b6101cc6004803603602081101561012957600080fd5b810190808035906020019064010000000081111561014657600080fd5b82018360208201111561015857600080fd5b8035906020019184600183028401116401000000008311171561017a57600080fd5b91908080601f016020809104026020016040519081016040528093929190818152602001838380828437600081840152601f19601f82011690508083019250505050505050919291929050505061021b565b604051808381526020018281526020019250505060405180910390f35b606082826040516020018083815260200182815260200192505050604051602081830303815290604052905092915050565b60008060408351141515610297576040517f08c379a000000000000000000000000000000000000000000000000000000000815260040180806020018281038252600c8152602001807f696e76616c69642064617461000000000000000000000000000000000000000081525060200191505060405180910390fd5b8280602001905160408110156102ac57600080fd5b8101908080519060200190929190805190602001909291905050509150915091509156fea165627a7a7230582084d99d82eec3432e600f7aa2d361d9e6fa577d6147c07e0aa322036c23869e8b0029",
  "source": "pragma solidity ^0.5.2;\r\n\r\nlibrary ABI {\r\n    function decode(\r\n        bytes memory _data\r\n    )\r\n        public\r\n        pure\r\n        returns(uint256, bytes32)\r\n    {\r\n        require(_data.length == 64, \"invalid data\");\r\n        return abi.decode(_data, (uint256, bytes32));\r\n    }\r\n\r\n    function encode(\r\n        uint256 toAmount,\r\n        bytes32 checkpoint\r\n    )\r\n        public\r\n        pure\r\n        returns(bytes memory)\r\n    {\r\n        return abi.encode(toAmount, checkpoint);\r\n    }\r\n}",
  "sourcePath": "C:\\Users\\bestb\\Desktop\\workshop\\nextyio\\nytex\\contracts\\lib\\ABI.sol",
  "compiler": {
    "name": "solc",
    "version": "0.5.5+commit.47a71e8f.Emscripten.clang"
  },
  "schemaVersion": "3.0.2",
  "updatedAt": "2019-04-02T08:30:39.287Z",
  "devdoc": {
    "methods": {}
  },
  "userdoc": {
    "methods": {}
  }
}