{
  "contractName": "BytesConvert",
  "abi": [
    {
      "constant": true,
      "inputs": [
        {
          "name": "x",
          "type": "uint256"
        }
      ],
      "name": "uint256ToBytes",
      "outputs": [
        {
          "name": "b",
          "type": "bytes"
        }
      ],
      "payable": false,
      "stateMutability": "pure",
      "type": "function"
    },
    {
      "constant": true,
      "inputs": [
        {
          "name": "b",
          "type": "bytes"
        }
      ],
      "name": "bytesToUint256",
      "outputs": [
        {
          "name": "",
          "type": "uint256"
        }
      ],
      "payable": false,
      "stateMutability": "pure",
      "type": "function"
    },
    {
      "constant": true,
      "inputs": [
        {
          "name": "b",
          "type": "bytes"
        },
        {
          "name": "offset",
          "type": "uint256"
        }
      ],
      "name": "bytesToBytes32",
      "outputs": [
        {
          "name": "",
          "type": "bytes32"
        }
      ],
      "payable": false,
      "stateMutability": "pure",
      "type": "function"
    }
  ],
  "bytecode": "0x6104c4610028600b82828239805160001a607314151561001b57fe5b30600052607381538281f3fe7300000000000000000000000000000000000000003014608060405260043610610068576000357c010000000000000000000000000000000000000000000000000000000090048063535849391461006d578063c7559da414610146578063cc9de25d146101ed575b600080fd5b6101306004803603604081101561008357600080fd5b81019080803590602001906401000000008111156100a057600080fd5b8201836020820111156100b257600080fd5b803590602001918460018302840111640100000000831117156100d457600080fd5b91908080601f016020809104026020016040519081016040528093929190818152602001838380828437600081840152601f19601f820116905080830192505050505050509192919290803590602001909291905050506102bc565b6040518082815260200191505060405180910390f35b6101726004803603602081101561015c57600080fd5b810190808035906020019092919050505061039a565b6040518080602001828103825283818151815260200191508051906020019080838360005b838110156101b2578082015181840152602081019050610197565b50505050905090810190601f1680156101df5780820380516001836020036101000a031916815260200191505b509250505060405180910390f35b6102a66004803603602081101561020357600080fd5b810190808035906020019064010000000081111561022057600080fd5b82018360208201111561023257600080fd5b8035906020019184600183028401116401000000008311171561025457600080fd5b91908080601f016020809104026020016040519081016040528093929190818152602001838380828437600081840152601f19601f8201169050808301925050505050505091929192905050506103de565b6040518082815260200191505060405180910390f35b60008060008090505b602081101561038f576008810260ff7f0100000000000000000000000000000000000000000000000000000000000000028683870181518110151561030657fe5b9060200101517f010000000000000000000000000000000000000000000000000000000000000090047f010000000000000000000000000000000000000000000000000000000000000002167effffffffffffffffffffffffffffffffffffffffffffffffffffffffffffff1916908060020a82049150508217915080806001019150506102c5565b508091505092915050565b606060206040519080825280601f01601f1916602001820160405280156103d05781602001600182028038833980820191505090505b509050816020820152919050565b60008060008090505b835181101561048e576001810184510360080260020a848281518110151561040b57fe5b9060200101517f010000000000000000000000000000000000000000000000000000000000000090047f0100000000000000000000000000000000000000000000000000000000000000027f0100000000000000000000000000000000000000000000000000000000000000900460ff16028201915080806001019150506103e7565b508091505091905056fea165627a7a72305820a28593ba0f5f59927ef30d040ea24b0063075cb43facb9425ac1ea100f386f280029",
  "source": "pragma solidity ^0.5.2;\r\n\r\nlibrary BytesConvert {\r\n    function uint256ToBytes(uint256 x) public pure returns (bytes memory b) {\r\n        b = new bytes(32);\r\n        assembly { mstore(add(b, 32), x) }\r\n    }\r\n\r\n    function bytesToUint256(bytes memory b) public pure returns (uint256){\r\n        uint256 number;\r\n        for(uint i = 0; i < b.length; i++){\r\n            number = number + uint256(uint8(b[i]))*(2**(8*(b.length-(i+1))));\r\n        }\r\n        return number;\r\n    }\r\n\r\n    function bytesToBytes32(bytes memory b, uint offset) public pure returns (bytes32) {\r\n        bytes32 out;\r\n\r\n        for (uint i = 0; i < 32; i++) {\r\n            out |= bytes32(b[offset + i] & 0xFF) >> (i * 8);\r\n        }\r\n        return out;\r\n    }\r\n}",
  "sourcePath": "C:\\Users\\bestb\\Desktop\\workshop\\nextyio\\nytex\\contracts\\lib\\BytesConvert.sol",
  "compiler": {
    "name": "solc",
    "version": "0.5.5+commit.47a71e8f.Emscripten.clang"
  },
  "schemaVersion": "3.0.2",
  "updatedAt": "2019-04-02T08:30:39.304Z",
  "devdoc": {
    "methods": {}
  },
  "userdoc": {
    "methods": {}
  }
}