{
  "contractName": "Install",
  "abi": [
    {
      "inputs": [],
      "payable": false,
      "stateMutability": "nonpayable",
      "type": "constructor"
    },
    {
      "constant": false,
      "inputs": [],
      "name": "wntyRegister",
      "outputs": [],
      "payable": false,
      "stateMutability": "nonpayable",
      "type": "function"
    },
    {
      "constant": false,
      "inputs": [],
      "name": "nusdRegister",
      "outputs": [],
      "payable": false,
      "stateMutability": "nonpayable",
      "type": "function"
    }
  ],
  "bytecode": "0x608060405234801561001057600080fd5b506102fc806100206000396000f3fe608060405234801561001057600080fd5b5060043610610053576000357c010000000000000000000000000000000000000000000000000000000090048063a97dfd3c14610058578063c58b845514610062575b600080fd5b61006061006c565b005b61006a61019d565b005b600073ffffffffffffffffffffffffffffffffffffffff166000808015151515815260200190815260200160002060009054906101000a900473ffffffffffffffffffffffffffffffffffffffff1673ffffffffffffffffffffffffffffffffffffffff16141515610146576040517f08c379a000000000000000000000000000000000000000000000000000000000815260040180806020018281038252600b8152602001807f616c72656164792073657400000000000000000000000000000000000000000081525060200191505060405180910390fd5b336000808015151515815260200190815260200160002060006101000a81548173ffffffffffffffffffffffffffffffffffffffff021916908373ffffffffffffffffffffffffffffffffffffffff160217905550565b600073ffffffffffffffffffffffffffffffffffffffff16600080600115151515815260200190815260200160002060009054906101000a900473ffffffffffffffffffffffffffffffffffffffff1673ffffffffffffffffffffffffffffffffffffffff16141515610278576040517f08c379a000000000000000000000000000000000000000000000000000000000815260040180806020018281038252600b8152602001807f616c72656164792073657400000000000000000000000000000000000000000081525060200191505060405180910390fd5b33600080600115151515815260200190815260200160002060006101000a81548173ffffffffffffffffffffffffffffffffffffffff021916908373ffffffffffffffffffffffffffffffffffffffff16021790555056fea165627a7a723058200373750fb0e53c129f2e9a3a1874d8d9c83a6586c44692bbf52a057ecb04ed510029",
  "source": "pragma solidity ^0.5.2;\r\n\r\nimport \"./interfaces/IOwnableERC223.sol\";\r\n\r\ncontract Install {\r\n    mapping(bool => IOwnableERC223) token;\r\n    // IOwnableERC223 internal wnty;\r\n    // IOwnableERC223 internal nusd;\r\n\r\n    constructor ()\r\n        public\r\n    {\r\n\r\n    }\r\n\r\n    function wntyRegister()\r\n        public\r\n    {\r\n        // SellType false\r\n        require(address(token[false]) == address(0), \"already set\");\r\n        token[false] = IOwnableERC223(msg.sender);\r\n    }\r\n\r\n    function nusdRegister()\r\n        public\r\n    {\r\n        // BuyType true\r\n        require(address(token[true]) == address(0), \"already set\");\r\n        token[true] = IOwnableERC223(msg.sender);\r\n    }\r\n}",
  "sourcePath": "C:\\Users\\bestb\\Desktop\\workshop\\nextyio\\nytex\\contracts\\Install.sol",
  "compiler": {
    "name": "solc",
    "version": "0.5.5+commit.47a71e8f.Emscripten.clang"
  },
  "schemaVersion": "3.0.2",
  "updatedAt": "2019-04-02T08:30:39.290Z",
  "devdoc": {
    "methods": {}
  },
  "userdoc": {
    "methods": {}
  }
}