{
  "contractName": "Order",
  "abi": [
    {
      "constant": true,
      "inputs": [],
      "name": "debug",
      "outputs": [
        {
          "name": "",
          "type": "bytes32"
        }
      ],
      "payable": false,
      "stateMutability": "view",
      "type": "function"
    },
    {
      "constant": false,
      "inputs": [],
      "name": "wntyRegister",
      "outputs": [],
      "payable": false,
      "stateMutability": "nonpayable",
      "type": "function"
    },
    {
      "constant": false,
      "inputs": [],
      "name": "nusdRegister",
      "outputs": [],
      "payable": false,
      "stateMutability": "nonpayable",
      "type": "function"
    },
    {
      "constant": false,
      "inputs": [
        {
          "name": "_orderType",
          "type": "bool"
        },
        {
          "name": "_fromAmount",
          "type": "uint256"
        },
        {
          "name": "_toAmount",
          "type": "uint256"
        },
        {
          "name": "_maker",
          "type": "address"
        },
        {
          "name": "_checkpoint",
          "type": "bytes32"
        }
      ],
      "name": "insert",
      "outputs": [
        {
          "name": "",
          "type": "bytes32"
        }
      ],
      "payable": false,
      "stateMutability": "nonpayable",
      "type": "function"
    },
    {
      "constant": true,
      "inputs": [
        {
          "name": "_orderType",
          "type": "bool"
        },
        {
          "name": "_id",
          "type": "bytes32"
        }
      ],
      "name": "validOrder",
      "outputs": [
        {
          "name": "",
          "type": "bool"
        }
      ],
      "payable": false,
      "stateMutability": "view",
      "type": "function"
    },
    {
      "constant": false,
      "inputs": [
        {
          "name": "_maker",
          "type": "address"
        },
        {
          "name": "_orderType",
          "type": "bool"
        },
        {
          "name": "_fromAmount",
          "type": "uint256"
        },
        {
          "name": "_toAmount",
          "type": "uint256"
        }
      ],
      "name": "initOrder",
      "outputs": [
        {
          "name": "",
          "type": "bytes32"
        }
      ],
      "payable": false,
      "stateMutability": "nonpayable",
      "type": "function"
    },
    {
      "constant": false,
      "inputs": [
        {
          "name": "_orderType",
          "type": "bool"
        },
        {
          "name": "_id",
          "type": "bytes32"
        }
      ],
      "name": "remove",
      "outputs": [],
      "payable": false,
      "stateMutability": "nonpayable",
      "type": "function"
    },
    {
      "constant": true,
      "inputs": [
        {
          "name": "_orderType",
          "type": "bool"
        }
      ],
      "name": "top",
      "outputs": [
        {
          "name": "",
          "type": "bytes32"
        }
      ],
      "payable": false,
      "stateMutability": "view",
      "type": "function"
    },
    {
      "constant": true,
      "inputs": [
        {
          "name": "_orderType",
          "type": "bool"
        }
      ],
      "name": "bottom",
      "outputs": [
        {
          "name": "",
          "type": "bytes32"
        }
      ],
      "payable": false,
      "stateMutability": "view",
      "type": "function"
    },
    {
      "constant": true,
      "inputs": [
        {
          "name": "orderType",
          "type": "bool"
        },
        {
          "name": "_newId",
          "type": "bytes32"
        },
        {
          "name": "_oldId",
          "type": "bytes32"
        }
      ],
      "name": "betterBid",
      "outputs": [
        {
          "name": "",
          "type": "bool"
        }
      ],
      "payable": false,
      "stateMutability": "view",
      "type": "function"
    },
    {
      "constant": true,
      "inputs": [
        {
          "name": "a",
          "type": "uint256"
        },
        {
          "name": "b",
          "type": "uint256"
        }
      ],
      "name": "getMin",
      "outputs": [
        {
          "name": "",
          "type": "uint256"
        }
      ],
      "payable": false,
      "stateMutability": "view",
      "type": "function"
    },
    {
      "constant": true,
      "inputs": [
        {
          "name": "_orderType",
          "type": "bool"
        },
        {
          "name": "_id",
          "type": "bytes32"
        }
      ],
      "name": "getNext",
      "outputs": [
        {
          "name": "",
          "type": "bytes32"
        }
      ],
      "payable": false,
      "stateMutability": "view",
      "type": "function"
    },
    {
      "constant": true,
      "inputs": [
        {
          "name": "_orderType",
          "type": "bool"
        },
        {
          "name": "_id",
          "type": "bytes32"
        }
      ],
      "name": "getPrev",
      "outputs": [
        {
          "name": "",
          "type": "bytes32"
        }
      ],
      "payable": false,
      "stateMutability": "view",
      "type": "function"
    },
    {
      "constant": true,
      "inputs": [
        {
          "name": "_orderType",
          "type": "bool"
        },
        {
          "name": "_id",
          "type": "bytes32"
        }
      ],
      "name": "getOrder",
      "outputs": [
        {
          "name": "",
          "type": "address"
        },
        {
          "name": "",
          "type": "uint256"
        },
        {
          "name": "",
          "type": "uint256"
        },
        {
          "name": "",
          "type": "bytes32"
        },
        {
          "name": "",
          "type": "bytes32"
        }
      ],
      "payable": false,
      "stateMutability": "view",
      "type": "function"
    }
  ],
  "bytecode": "0x6080604052611345806100136000396000f3fe608060405234801561001057600080fd5b5060043610610107576000357c0100000000000000000000000000000000000000000000000000000000900480638aa3f897116100a9578063c58b845511610083578063c58b8455146103fe578063ce11ae6614610408578063ce24388f14610456578063d39ecc95146104a457610107565b80638aa3f89714610338578063a97dfd3c1461037c578063bc96b8721461038657610107565b8063588ee29b116100e5578063588ee29b1461023257806369722e55146102505780637234c79d1461028a5780637d5059df146102dc57610107565b806307c399a31461010c5780630fd95db5146101a2578063174a5088146101ee575b600080fd5b6101446004803603604081101561012257600080fd5b8101908080351515906020019092919080359060200190929190505050610526565b604051808673ffffffffffffffffffffffffffffffffffffffff1673ffffffffffffffffffffffffffffffffffffffff1681526020018581526020018481526020018381526020018281526020019550505050505060405180910390f35b6101d8600480360360408110156101b857600080fd5b8101908080359060200190929190803590602001909291905050506105b0565b6040518082815260200191505060405180910390f35b61021c6004803603602081101561020457600080fd5b810190808035151590602001909291905050506105c9565b6040518082815260200191505060405180910390f35b61023a610609565b6040518082815260200191505060405180910390f35b6102886004803603604081101561026657600080fd5b810190808035151590602001909291908035906020019092919050505061060f565b005b6102c2600480360360408110156102a057600080fd5b81019080803515159060200190929190803590602001909291905050506108f6565b604051808215151515815260200191505060405180910390f35b61031e600480360360608110156102f257600080fd5b81019080803515159060200190929190803590602001909291908035906020019092919050505061093d565b604051808215151515815260200191505060405180910390f35b6103666004803603602081101561034e57600080fd5b810190808035151590602001909291905050506109da565b6040518082815260200191505060405180910390f35b610384610a1a565b005b6103e86004803603608081101561039c57600080fd5b81019080803573ffffffffffffffffffffffffffffffffffffffff1690602001909291908035151590602001909291908035906020019092919080359060200190929190505050610b4b565b6040518082815260200191505060405180910390f35b610406610e6f565b005b6104406004803603604081101561041e57600080fd5b8101908080351515906020019092919080359060200190929190505050610fa2565b6040518082815260200191505060405180910390f35b61048e6004803603604081101561046c57600080fd5b8101908080351515906020019092919080359060200190929190505050610fe0565b6040518082815260200191505060405180910390f35b610510600480360360a08110156104ba57600080fd5b810190808035151590602001909291908035906020019092919080359060200190929190803573ffffffffffffffffffffffffffffffffffffffff1690602001909291908035906020019092919050505061101e565b6040518082815260200191505060405180910390f35b60008060008060008060016000891515151581526020019081526020016000209050600081600001600089815260200190815260200160002090508060000160009054906101000a900473ffffffffffffffffffffffffffffffffffffffff1681600101548260020154836003015484600401549650965096509650965050509295509295909350565b60008183116105bf57826105c1565b815b905092915050565b6000806001600084151515158152602001908152602001600020905080600001600080600102815260200190815260200160002060030154915050919050565b60035481565b600060016000841515151581526020019081526020016000209050600081600001600084815260200190815260200160002090508060000160009054906101000a900473ffffffffffffffffffffffffffffffffffffffff1673ffffffffffffffffffffffffffffffffffffffff163373ffffffffffffffffffffffffffffffffffffffff1614151561070a576040517f08c379a00000000000000000000000000000000000000000000000000000000081526004018080602001828103825260108152602001807f6f6e6c79206f72646572206f776e65720000000000000000000000000000000081525060200191505060405180910390fd5b80600401548260000160008360030154815260200190815260200160002060040181905550806003015482600001600083600401548152602001908152602001600020600301819055506000808515151515815260200190815260200160002060009054906101000a900473ffffffffffffffffffffffffffffffffffffffff1673ffffffffffffffffffffffffffffffffffffffff1663a9059cbb8260000160009054906101000a900473ffffffffffffffffffffffffffffffffffffffff1683600101546040518363ffffffff167c0100000000000000000000000000000000000000000000000000000000028152600401808373ffffffffffffffffffffffffffffffffffffffff1673ffffffffffffffffffffffffffffffffffffffff16815260200182815260200192505050602060405180830381600087803b15801561085557600080fd5b505af1158015610869573d6000803e3d6000fd5b505050506040513d602081101561087f57600080fd5b810190808051906020019092919050505050816000016000848152602001908152602001600020600080820160006101000a81549073ffffffffffffffffffffffffffffffffffffffff02191690556001820160009055600282016000905560038201600090556004820160009055505050505050565b600080600160008515151515815260200190815260200160002090506000816000016000858152602001908152602001600020905060008160020154119250505092915050565b60008060016000861515151581526020019081526020016000209050600081600001600086815260200190815260200160002090506000826000016000868152602001908152602001600020905060006109a88260020154846001015461122890919063ffffffff16565b905060006109c78460020154846001015461122890919063ffffffff16565b9050808211955050505050509392505050565b6000806001600084151515158152602001908152602001600020905080600001600080600102815260200190815260200160002060040154915050919050565b600073ffffffffffffffffffffffffffffffffffffffff166000808015151515815260200190815260200160002060009054906101000a900473ffffffffffffffffffffffffffffffffffffffff1673ffffffffffffffffffffffffffffffffffffffff16141515610af4576040517f08c379a000000000000000000000000000000000000000000000000000000000815260040180806020018281038252600b8152602001807f616c72656164792073657400000000000000000000000000000000000000000081525060200191505060405180910390fd5b336000808015151515815260200190815260200160002060006101000a81548173ffffffffffffffffffffffffffffffffffffffff021916908373ffffffffffffffffffffffffffffffffffffffff160217905550565b60008083118015610b5c5750600082115b1515610bd0576040517f08c379a000000000000000000000000000000000000000000000000000000000815260040180806020018281038252600e8152602001807f7361766520796f75722074696d6500000000000000000000000000000000000081525060200191505060405180910390fd5b600260008673ffffffffffffffffffffffffffffffffffffffff1673ffffffffffffffffffffffffffffffffffffffff168152602001908152602001600020600081548092919060010191905055506000600160008615151515815260200190815260200160002090506000600287600260008a73ffffffffffffffffffffffffffffffffffffffff1673ffffffffffffffffffffffffffffffffffffffff168152602001908152602001600020548787604051602001808573ffffffffffffffffffffffffffffffffffffffff1673ffffffffffffffffffffffffffffffffffffffff166c010000000000000000000000000281526014018481526020018381526020018281526020019450505050506040516020818303038152906040526040518082805190602001908083835b602083101515610d255780518252602082019150602081019050602083039250610d00565b6001836020036101000a038019825116818451168082178552505050505050905001915050602060405180830381855afa158015610d67573d6000803e3d6000fd5b5050506040513d6020811015610d7c57600080fd5b810190808051906020019092919050505090506040518060a001604052808873ffffffffffffffffffffffffffffffffffffffff16815260200186815260200185815260200160006001028152602001600060010281525082600001600083815260200190815260200160002060008201518160000160006101000a81548173ffffffffffffffffffffffffffffffffffffffff021916908373ffffffffffffffffffffffffffffffffffffffff16021790555060208201518160010155604082015181600201556060820151816003015560808201518160040155905050806003819055508092505050949350505050565b600073ffffffffffffffffffffffffffffffffffffffff16600080600115151515815260200190815260200160002060009054906101000a900473ffffffffffffffffffffffffffffffffffffffff1673ffffffffffffffffffffffffffffffffffffffff16141515610f4a576040517f08c379a000000000000000000000000000000000000000000000000000000000815260040180806020018281038252600b8152602001807f616c72656164792073657400000000000000000000000000000000000000000081525060200191505060405180910390fd5b33600080600115151515815260200190815260200160002060006101000a81548173ffffffffffffffffffffffffffffffffffffffff021916908373ffffffffffffffffffffffffffffffffffffffff160217905550565b600080600160008515151515815260200190815260200160002090508060000160008481526020019081526020016000206003015491505092915050565b600080600160008515151515815260200190815260200160002090508060000160008481526020019081526020016000206004015491505092915050565b600061102a86836108f6565b151561109e576040517f08c379a000000000000000000000000000000000000000000000000000000000815260040180806020018281038252600d8152602001807f7361766520796f7572206761730000000000000000000000000000000000000081525060200191505060405180910390fd5b60006001600088151515158152602001908152602001600020905060006110c785898989610b4b565b905060008490506110d989838361093d565b1515611127575b6110eb89838361093d565b1515611111578260000160008281526020019081526020016000206004015490506110e0565b61111c898383611266565b81935050505061121f565b8260000160008281526020019081526020016000206003015490505b60007f01000000000000000000000000000000000000000000000000000000000000000281600060208110151561117657fe5b1a7f0100000000000000000000000000000000000000000000000000000000000000027effffffffffffffffffffffffffffffffffffffffffffffffffffffffffffff1916141580156111d057506111cf89838361093d565b5b156111f557826000016000828152602001908152602001600020600301549050611143565b611218898385600001600085815260200190815260200160002060040154611266565b8193505050505b95945050505050565b60008083141561123b5760009050611260565b6000828402905082848281151561124e57fe5b0414151561125b57600080fd5b809150505b92915050565b60006001600085151515158152602001908152602001600020905060008160000160008481526020019081526020016000206003015490508082600001600086815260200190815260200160002060030181905550828260000160008681526020019081526020016000206004018190555083826000016000858152602001908152602001600020600301819055508382600001600083815260200190815260200160002060040181905550505050505056fea165627a7a72305820b76cc3a4c5de72d126b75c2ed09a1d2bf63391c7adcb9a9580c8fd9abd6d340d0029",
  "source": "pragma solidity ^0.5.2;\r\n\r\nimport \"openzeppelin-solidity/contracts/math/SafeMath.sol\";\r\nimport \"./DataSet.sol\";\r\nimport \"./Install.sol\";\r\n\r\ncontract Order is Install, DataSet {\r\n    using SafeMath for uint256;\r\n    bytes32 public debug ;\r\n    function insert(\r\n        bool _orderType,\r\n        uint256 _fromAmount,\r\n        uint256 _toAmount,\r\n        address _maker,\r\n        bytes32 _checkpoint\r\n        ) \r\n        public\r\n \t    returns (bytes32) \r\n    {\r\n        require(validOrder(_orderType, _checkpoint), \"save your gas\");\r\n        OrderList storage book = books[_orderType];\r\n        bytes32 id = initOrder(_maker, _orderType, _fromAmount, _toAmount);\r\n\r\n        // direction to bottom, search first order, that new order better than\r\n        bytes32 cursor = _checkpoint;\r\n        if (!betterBid(_orderType, id, cursor)) {\r\n            // order[id] always better than oder[0] with price = 0\r\n            // if price of order[id] = 0 => throw cause infinite loop\r\n            while (!betterBid(_orderType, id, cursor)) {\r\n                cursor = book.orders[cursor].next;\r\n            }\r\n            prevInsert(_orderType, id, cursor);\r\n            return id;\r\n        }\r\n        cursor = book.orders[cursor].prev;\r\n        // direction to top, search first order that new order not better than\r\n        // this part triggered only if new order not better than checkpoint order\r\n        while (cursor[0] != 0 && betterBid(_orderType, id, cursor)) {\r\n            cursor = book.orders[cursor].prev;\r\n        }\r\n        prevInsert(_orderType, id, book.orders[cursor].next);\r\n        return id;\r\n    }\r\n\r\n    // inseter _id as prev element of _next\r\n    function prevInsert(\r\n        bool _orderType,\r\n        bytes32 _id,\r\n        bytes32 _next\r\n    )\r\n        private\r\n    {\r\n        // _prev => _id => _next\r\n        OrderList storage book = books[_orderType];\r\n        bytes32 _prev = book.orders[_next].prev;\r\n        book.orders[_id].prev = _prev;\r\n        book.orders[_id].next = _next;\r\n        book.orders[_next].prev = _id;\r\n        book.orders[_prev].next = _id;\r\n    }\r\n\r\n    function validOrder(\r\n        bool _orderType,\r\n        bytes32 _id\r\n    )\r\n        public\r\n        view\r\n        returns(bool)\r\n    {\r\n        OrderList storage book = books[_orderType];\r\n        Order storage _order = book.orders[_id];\r\n        return _order.toAmount > 0;\r\n    }\r\n\r\n    function initOrder(\r\n        address _maker,\r\n        bool _orderType,\r\n        uint256 _fromAmount,\r\n        uint256 _toAmount\r\n    )\r\n        public\r\n        returns (bytes32)\r\n    {\r\n        require(_fromAmount > 0 && _toAmount > 0, \"save your time\");\r\n        pNonce[_maker]++;\r\n        OrderList storage book = books[_orderType];\r\n        bytes32 id = sha256(abi.encodePacked(_maker, pNonce[_maker], _fromAmount, _toAmount));\r\n        book.orders[id] = Order(_maker, _fromAmount, _toAmount, 0, 0);\r\n        debug = id;\r\n        return id;\r\n    }\r\n\r\n    function _remove(bool _orderType, bytes32 _id) internal {\r\n        OrderList storage book = books[_orderType];\r\n        Order storage order = book.orders[_id];\r\n        // before: prev => order =>next\r\n        // after: prev => next\r\n        book.orders[order.prev].next = order.next;\r\n        book.orders[order.next].prev = order.prev;\r\n        token[_orderType].transfer(order.maker, order.fromAmount);\r\n        delete book.orders[_id];\r\n    }\r\n\r\n    function remove(bool _orderType, bytes32 _id) public {\r\n        OrderList storage book = books[_orderType];\r\n        Order storage order = book.orders[_id];\r\n        require(msg.sender == order.maker, \"only order owner\");\r\n        // before: prev => order =>next\r\n        // after: prev => next\r\n        book.orders[order.prev].next = order.next;\r\n        book.orders[order.next].prev = order.prev;\r\n        token[_orderType].transfer(order.maker, order.fromAmount);\r\n        delete book.orders[_id];\r\n    }\r\n\r\n    // read functions\r\n    function top(\r\n        bool _orderType\r\n    )\r\n        public\r\n        view\r\n        returns (bytes32)\r\n    {\r\n        OrderList storage book = books[_orderType];\r\n        return book.orders[bytes32(0)].next;\r\n    }\r\n\r\n    function bottom(\r\n        bool _orderType\r\n    )\r\n        public\r\n        view\r\n        returns (bytes32)\r\n    {\r\n        OrderList storage book = books[_orderType];\r\n        return book.orders[bytes32(0)].prev;\r\n    }\r\n\r\n    function betterBid(\r\n        bool orderType,\r\n        bytes32 _newId,\r\n        bytes32 _oldId\r\n    )\r\n        public\r\n        view\r\n        returns (bool)\r\n    {\r\n        OrderList storage book = books[orderType];\r\n        Order storage _new = book.orders[_newId];\r\n        Order storage _old = book.orders[_oldId];\r\n        // newTo / newFrom < oldTo / oldFrom\r\n        uint256 a = _new.fromAmount.mul(_old.toAmount);\r\n        uint256 b = _old.fromAmount.mul(_new.toAmount);\r\n        return a > b;\r\n    }\r\n\r\n    function getMin(\r\n        uint a,\r\n        uint b\r\n    )\r\n        public\r\n        view\r\n        returns(uint)\r\n    {\r\n        return a > b ? b : a;\r\n    }\r\n\r\n    function getNext(\r\n        bool _orderType,\r\n        bytes32 _id\r\n    )\r\n        public\r\n        view\r\n        returns (bytes32)\r\n    {\r\n        OrderList storage book = books[_orderType];\r\n        return book.orders[_id].next;\r\n    }\r\n\r\n    function getPrev(\r\n        bool _orderType,\r\n        bytes32 _id\r\n    )\r\n        public\r\n        view\r\n        returns (bytes32)\r\n    {\r\n        OrderList storage book = books[_orderType];\r\n        return book.orders[_id].prev;\r\n    }\r\n\r\n    function getOrder(\r\n        bool _orderType,\r\n        bytes32 _id\r\n    )\r\n        public\r\n        view\r\n        returns (\r\n            address,\r\n            uint256,\r\n            uint256,\r\n            bytes32,\r\n            bytes32\r\n        )\r\n    {\r\n        OrderList storage book = books[_orderType];\r\n        Order storage order = book.orders[_id];\r\n        return (order.maker, order.fromAmount, order.toAmount, order.prev, order.next);\r\n    }\r\n}",
  "sourcePath": "C:\\Users\\bestb\\Desktop\\workshop\\nextyio\\nytex\\contracts\\Order.sol",
  "compiler": {
    "name": "solc",
    "version": "0.5.5+commit.47a71e8f.Emscripten.clang"
  },
  "schemaVersion": "3.0.2",
  "updatedAt": "2019-04-02T08:30:39.327Z",
  "devdoc": {
    "methods": {}
  },
  "userdoc": {
    "methods": {}
  }
}