{
  "contractName": "Orderbook",
  "abi": [
    {
      "constant": true,
      "inputs": [
        {
          "name": "_orderType",
          "type": "bool"
        },
        {
          "name": "_id",
          "type": "bytes32"
        }
      ],
      "name": "getOrder",
      "outputs": [
        {
          "name": "",
          "type": "address"
        },
        {
          "name": "",
          "type": "uint256"
        },
        {
          "name": "",
          "type": "uint256"
        },
        {
          "name": "",
          "type": "bytes32"
        },
        {
          "name": "",
          "type": "bytes32"
        }
      ],
      "payable": false,
      "stateMutability": "view",
      "type": "function",
      "signature": "0x07c399a3"
    },
    {
      "constant": true,
      "inputs": [
        {
          "name": "a",
          "type": "uint256"
        },
        {
          "name": "b",
          "type": "uint256"
        }
      ],
      "name": "getMin",
      "outputs": [
        {
          "name": "",
          "type": "uint256"
        }
      ],
      "payable": false,
      "stateMutability": "view",
      "type": "function",
      "signature": "0x0fd95db5"
    },
    {
      "constant": true,
      "inputs": [
        {
          "name": "_orderType",
          "type": "bool"
        }
      ],
      "name": "bottom",
      "outputs": [
        {
          "name": "",
          "type": "bytes32"
        }
      ],
      "payable": false,
      "stateMutability": "view",
      "type": "function",
      "signature": "0x174a5088"
    },
    {
      "constant": true,
      "inputs": [],
      "name": "debug",
      "outputs": [
        {
          "name": "",
          "type": "bytes32"
        }
      ],
      "payable": false,
      "stateMutability": "view",
      "type": "function",
      "signature": "0x588ee29b"
    },
    {
      "constant": false,
      "inputs": [
        {
          "name": "_orderType",
          "type": "bool"
        },
        {
          "name": "_id",
          "type": "bytes32"
        }
      ],
      "name": "remove",
      "outputs": [],
      "payable": false,
      "stateMutability": "nonpayable",
      "type": "function",
      "signature": "0x69722e55"
    },
    {
      "constant": true,
      "inputs": [
        {
          "name": "_orderType",
          "type": "bool"
        },
        {
          "name": "_id",
          "type": "bytes32"
        }
      ],
      "name": "validOrder",
      "outputs": [
        {
          "name": "",
          "type": "bool"
        }
      ],
      "payable": false,
      "stateMutability": "view",
      "type": "function",
      "signature": "0x7234c79d"
    },
    {
      "constant": true,
      "inputs": [
        {
          "name": "orderType",
          "type": "bool"
        },
        {
          "name": "_newId",
          "type": "bytes32"
        },
        {
          "name": "_oldId",
          "type": "bytes32"
        }
      ],
      "name": "betterBid",
      "outputs": [
        {
          "name": "",
          "type": "bool"
        }
      ],
      "payable": false,
      "stateMutability": "view",
      "type": "function",
      "signature": "0x7d5059df"
    },
    {
      "constant": true,
      "inputs": [
        {
          "name": "_orderType",
          "type": "bool"
        }
      ],
      "name": "top",
      "outputs": [
        {
          "name": "",
          "type": "bytes32"
        }
      ],
      "payable": false,
      "stateMutability": "view",
      "type": "function",
      "signature": "0x8aa3f897"
    },
    {
      "constant": false,
      "inputs": [],
      "name": "wntyRegister",
      "outputs": [],
      "payable": false,
      "stateMutability": "nonpayable",
      "type": "function",
      "signature": "0xa97dfd3c"
    },
    {
      "constant": false,
      "inputs": [
        {
          "name": "_maker",
          "type": "address"
        },
        {
          "name": "_orderType",
          "type": "bool"
        },
        {
          "name": "_fromAmount",
          "type": "uint256"
        },
        {
          "name": "_toAmount",
          "type": "uint256"
        }
      ],
      "name": "initOrder",
      "outputs": [
        {
          "name": "",
          "type": "bytes32"
        }
      ],
      "payable": false,
      "stateMutability": "nonpayable",
      "type": "function",
      "signature": "0xbc96b872"
    },
    {
      "constant": false,
      "inputs": [],
      "name": "nusdRegister",
      "outputs": [],
      "payable": false,
      "stateMutability": "nonpayable",
      "type": "function",
      "signature": "0xc58b8455"
    },
    {
      "constant": true,
      "inputs": [
        {
          "name": "_orderType",
          "type": "bool"
        },
        {
          "name": "_id",
          "type": "bytes32"
        }
      ],
      "name": "getPrev",
      "outputs": [
        {
          "name": "",
          "type": "bytes32"
        }
      ],
      "payable": false,
      "stateMutability": "view",
      "type": "function",
      "signature": "0xce11ae66"
    },
    {
      "constant": true,
      "inputs": [
        {
          "name": "_orderType",
          "type": "bool"
        },
        {
          "name": "_id",
          "type": "bytes32"
        }
      ],
      "name": "getNext",
      "outputs": [
        {
          "name": "",
          "type": "bytes32"
        }
      ],
      "payable": false,
      "stateMutability": "view",
      "type": "function",
      "signature": "0xce24388f"
    },
    {
      "constant": false,
      "inputs": [
        {
          "name": "_orderType",
          "type": "bool"
        },
        {
          "name": "_fromAmount",
          "type": "uint256"
        },
        {
          "name": "_toAmount",
          "type": "uint256"
        },
        {
          "name": "_maker",
          "type": "address"
        },
        {
          "name": "_checkpoint",
          "type": "bytes32"
        }
      ],
      "name": "insert",
      "outputs": [
        {
          "name": "",
          "type": "bytes32"
        }
      ],
      "payable": false,
      "stateMutability": "nonpayable",
      "type": "function",
      "signature": "0xd39ecc95"
    },
    {
      "inputs": [],
      "payable": false,
      "stateMutability": "nonpayable",
      "type": "constructor",
      "signature": "constructor"
    },
    {
      "constant": true,
      "inputs": [],
      "name": "getOrderType",
      "outputs": [
        {
          "name": "",
          "type": "bool"
        }
      ],
      "payable": false,
      "stateMutability": "view",
      "type": "function",
      "signature": "0x55ebd76d"
    },
    {
      "constant": false,
      "inputs": [
        {
          "name": "_from",
          "type": "address"
        },
        {
          "name": "_value",
          "type": "uint256"
        },
        {
          "name": "_data",
          "type": "bytes"
        }
      ],
      "name": "tokenFallback",
      "outputs": [],
      "payable": false,
      "stateMutability": "nonpayable",
      "type": "function",
      "signature": "0xc0ee0b8a"
    }
  ],
  "bytecode": "0x608060405234801561001057600080fd5b50610019610176565b60018160400181815250506000600160008015151515815260200190815260200160002090508181600001600080600102815260200190815260200160002060008201518160000160006101000a81548173ffffffffffffffffffffffffffffffffffffffff021916908373ffffffffffffffffffffffffffffffffffffffff1602179055506020820151816001015560408201518160020155606082015181600301556080820151816004015590505060016000600115151515815260200190815260200160002090508181600001600080600102815260200190815260200160002060008201518160000160006101000a81548173ffffffffffffffffffffffffffffffffffffffff021916908373ffffffffffffffffffffffffffffffffffffffff1602179055506020820151816001015560408201518160020155606082015181600301556080820151816004015590505050506101c1565b6040518060a00160405280600073ffffffffffffffffffffffffffffffffffffffff168152602001600081526020016000815260200160008019168152602001600080191681525090565b611d6a806101d06000396000f3fe608060405234801561001057600080fd5b506004361061011d576000357c0100000000000000000000000000000000000000000000000000000000900480638aa3f897116100b4578063c58b845511610083578063c58b8455146104d9578063ce11ae66146104e3578063ce24388f14610531578063d39ecc951461057f5761011d565b80638aa3f89714610370578063a97dfd3c146103b4578063bc96b872146103be578063c0ee0b8a146104365761011d565b8063588ee29b116100f0578063588ee29b1461026a57806369722e55146102885780637234c79d146102c25780637d5059df146103145761011d565b806307c399a3146101225780630fd95db5146101b8578063174a50881461020457806355ebd76d14610248575b600080fd5b61015a6004803603604081101561013857600080fd5b8101908080351515906020019092919080359060200190929190505050610601565b604051808673ffffffffffffffffffffffffffffffffffffffff1673ffffffffffffffffffffffffffffffffffffffff1681526020018581526020018481526020018381526020018281526020019550505050505060405180910390f35b6101ee600480360360408110156101ce57600080fd5b81019080803590602001909291908035906020019092919050505061068b565b6040518082815260200191505060405180910390f35b6102326004803603602081101561021a57600080fd5b810190808035151590602001909291905050506106a4565b6040518082815260200191505060405180910390f35b6102506106e4565b604051808215151515815260200191505060405180910390f35b61027261089c565b6040518082815260200191505060405180910390f35b6102c06004803603604081101561029e57600080fd5b81019080803515159060200190929190803590602001909291905050506108a2565b005b6102fa600480360360408110156102d857600080fd5b8101908080351515906020019092919080359060200190929190505050610b89565b604051808215151515815260200191505060405180910390f35b6103566004803603606081101561032a57600080fd5b810190808035151590602001909291908035906020019092919080359060200190929190505050610bd0565b604051808215151515815260200191505060405180910390f35b61039e6004803603602081101561038657600080fd5b81019080803515159060200190929190505050610c6d565b6040518082815260200191505060405180910390f35b6103bc610cad565b005b610420600480360360808110156103d457600080fd5b81019080803573ffffffffffffffffffffffffffffffffffffffff1690602001909291908035151590602001909291908035906020019092919080359060200190929190505050610dde565b6040518082815260200191505060405180910390f35b6104d76004803603606081101561044c57600080fd5b81019080803573ffffffffffffffffffffffffffffffffffffffff169060200190929190803590602001909291908035906020019064010000000081111561049357600080fd5b8201836020820111156104a557600080fd5b803590602001918460018302840111640100000000831117156104c757600080fd5b9091929391929390505050611102565b005b6104e1611175565b005b61051b600480360360408110156104f957600080fd5b81019080803515159060200190929190803590602001909291905050506112a8565b6040518082815260200191505060405180910390f35b6105696004803603604081101561054757600080fd5b81019080803515159060200190929190803590602001909291905050506112e6565b6040518082815260200191505060405180910390f35b6105eb600480360360a081101561059557600080fd5b810190808035151590602001909291908035906020019092919080359060200190929190803573ffffffffffffffffffffffffffffffffffffffff16906020019092919080359060200190929190505050611324565b6040518082815260200191505060405180910390f35b60008060008060008060016000891515151581526020019081526020016000209050600081600001600089815260200190815260200160002090508060000160009054906101000a900473ffffffffffffffffffffffffffffffffffffffff1681600101548260020154836003015484600401549650965096509650965050509295509295909350565b600081831161069a578261069c565b815b905092915050565b6000806001600084151515158152602001908152602001600020905080600001600080600102815260200190815260200160002060030154915050919050565b600080339050600080600115151515815260200190815260200160002060009054906101000a900473ffffffffffffffffffffffffffffffffffffffff1673ffffffffffffffffffffffffffffffffffffffff168173ffffffffffffffffffffffffffffffffffffffff1614806107bc57506000808015151515815260200190815260200160002060009054906101000a900473ffffffffffffffffffffffffffffffffffffffff1673ffffffffffffffffffffffffffffffffffffffff168173ffffffffffffffffffffffffffffffffffffffff16145b1515610830576040517f08c379a000000000000000000000000000000000000000000000000000000000815260040180806020018281038252601b8152602001807f6f6e6c7920574e545920616e64204e555344206163636570746564000000000081525060200191505060405180910390fd5b600080600115151515815260200190815260200160002060009054906101000a900473ffffffffffffffffffffffffffffffffffffffff1673ffffffffffffffffffffffffffffffffffffffff168173ffffffffffffffffffffffffffffffffffffffff161491505090565b60035481565b600060016000841515151581526020019081526020016000209050600081600001600084815260200190815260200160002090508060000160009054906101000a900473ffffffffffffffffffffffffffffffffffffffff1673ffffffffffffffffffffffffffffffffffffffff163373ffffffffffffffffffffffffffffffffffffffff1614151561099d576040517f08c379a00000000000000000000000000000000000000000000000000000000081526004018080602001828103825260108152602001807f6f6e6c79206f72646572206f776e65720000000000000000000000000000000081525060200191505060405180910390fd5b80600401548260000160008360030154815260200190815260200160002060040181905550806003015482600001600083600401548152602001908152602001600020600301819055506000808515151515815260200190815260200160002060009054906101000a900473ffffffffffffffffffffffffffffffffffffffff1673ffffffffffffffffffffffffffffffffffffffff1663a9059cbb8260000160009054906101000a900473ffffffffffffffffffffffffffffffffffffffff1683600101546040518363ffffffff167c0100000000000000000000000000000000000000000000000000000000028152600401808373ffffffffffffffffffffffffffffffffffffffff1673ffffffffffffffffffffffffffffffffffffffff16815260200182815260200192505050602060405180830381600087803b158015610ae857600080fd5b505af1158015610afc573d6000803e3d6000fd5b505050506040513d6020811015610b1257600080fd5b810190808051906020019092919050505050816000016000848152602001908152602001600020600080820160006101000a81549073ffffffffffffffffffffffffffffffffffffffff02191690556001820160009055600282016000905560038201600090556004820160009055505050505050565b600080600160008515151515815260200190815260200160002090506000816000016000858152602001908152602001600020905060008160020154119250505092915050565b6000806001600086151515158152602001908152602001600020905060008160000160008681526020019081526020016000209050600082600001600086815260200190815260200160002090506000610c3b8260020154846001015461152e90919063ffffffff16565b90506000610c5a8460020154846001015461152e90919063ffffffff16565b9050808211955050505050509392505050565b6000806001600084151515158152602001908152602001600020905080600001600080600102815260200190815260200160002060040154915050919050565b600073ffffffffffffffffffffffffffffffffffffffff166000808015151515815260200190815260200160002060009054906101000a900473ffffffffffffffffffffffffffffffffffffffff1673ffffffffffffffffffffffffffffffffffffffff16141515610d87576040517f08c379a000000000000000000000000000000000000000000000000000000000815260040180806020018281038252600b8152602001807f616c72656164792073657400000000000000000000000000000000000000000081525060200191505060405180910390fd5b336000808015151515815260200190815260200160002060006101000a81548173ffffffffffffffffffffffffffffffffffffffff021916908373ffffffffffffffffffffffffffffffffffffffff160217905550565b60008083118015610def5750600082115b1515610e63576040517f08c379a000000000000000000000000000000000000000000000000000000000815260040180806020018281038252600e8152602001807f7361766520796f75722074696d6500000000000000000000000000000000000081525060200191505060405180910390fd5b600260008673ffffffffffffffffffffffffffffffffffffffff1673ffffffffffffffffffffffffffffffffffffffff168152602001908152602001600020600081548092919060010191905055506000600160008615151515815260200190815260200160002090506000600287600260008a73ffffffffffffffffffffffffffffffffffffffff1673ffffffffffffffffffffffffffffffffffffffff168152602001908152602001600020548787604051602001808573ffffffffffffffffffffffffffffffffffffffff1673ffffffffffffffffffffffffffffffffffffffff166c010000000000000000000000000281526014018481526020018381526020018281526020019450505050506040516020818303038152906040526040518082805190602001908083835b602083101515610fb85780518252602082019150602081019050602083039250610f93565b6001836020036101000a038019825116818451168082178552505050505050905001915050602060405180830381855afa158015610ffa573d6000803e3d6000fd5b5050506040513d602081101561100f57600080fd5b810190808051906020019092919050505090506040518060a001604052808873ffffffffffffffffffffffffffffffffffffffff16815260200186815260200185815260200160006001028152602001600060010281525082600001600083815260200190815260200160002060008201518160000160006101000a81548173ffffffffffffffffffffffffffffffffffffffff021916908373ffffffffffffffffffffffffffffffffffffffff16021790555060208201518160010155604082015181600201556060820151816003015560808201518160040155905050806003819055508092505050949350505050565b600084905060006111116106e4565b905060008590506000808686604081101561112b57600080fd5b8101908080359060200190929190803590602001909291905050508092508193505050600061115d8585858986611324565b9050611169858261156c565b50505050505050505050565b600073ffffffffffffffffffffffffffffffffffffffff16600080600115151515815260200190815260200160002060009054906101000a900473ffffffffffffffffffffffffffffffffffffffff1673ffffffffffffffffffffffffffffffffffffffff16141515611250576040517f08c379a000000000000000000000000000000000000000000000000000000000815260040180806020018281038252600b8152602001807f616c72656164792073657400000000000000000000000000000000000000000081525060200191505060405180910390fd5b33600080600115151515815260200190815260200160002060006101000a81548173ffffffffffffffffffffffffffffffffffffffff021916908373ffffffffffffffffffffffffffffffffffffffff160217905550565b600080600160008515151515815260200190815260200160002090508060000160008481526020019081526020016000206003015491505092915050565b600080600160008515151515815260200190815260200160002090508060000160008481526020019081526020016000206004015491505092915050565b60006113308683610b89565b15156113a4576040517f08c379a000000000000000000000000000000000000000000000000000000000815260040180806020018281038252600d8152602001807f7361766520796f7572206761730000000000000000000000000000000000000081525060200191505060405180910390fd5b60006001600088151515158152602001908152602001600020905060006113cd85898989610dde565b905060008490506113df898383610bd0565b151561142d575b6113f1898383610bd0565b1515611417578260000160008281526020019081526020016000206004015490506113e6565b611422898383611a49565b819350505050611525565b8260000160008281526020019081526020016000206003015490505b60007f01000000000000000000000000000000000000000000000000000000000000000281600060208110151561147c57fe5b1a7f0100000000000000000000000000000000000000000000000000000000000000027effffffffffffffffffffffffffffffffffffffffffffffffffffffffffffff1916141580156114d657506114d5898383610bd0565b5b156114fb57826000016000828152602001908152602001600020600301549050611449565b61151e898385600001600085815260200190815260200160002060040154611a49565b8193505050505b95945050505050565b6000808314156115415760009050611566565b6000828402905082848281151561155457fe5b0414151561156157600080fd5b809150505b92915050565b600060016000841515151581526020019081526020016000209050600081600001600084815260200190815260200160002090506000600160008615151515158152602001908152602001600020905060006115c88615610c6d565b90505b60007f0100000000000000000000000000000000000000000000000000000000000000028160006020811015156115fe57fe5b1a7f0100000000000000000000000000000000000000000000000000000000000000027effffffffffffffffffffffffffffffffffffffffffffffffffffffffffffff1916141515611a40576000826000016000838152602001908152602001600020905061167e8160020154856002015461152e90919063ffffffff16565b6116998260010154866001015461152e90919063ffffffff16565b10156116a9575050505050611a45565b60006116bd8560010154836002015461068b565b905060008260020154828460010154028115156116d657fe5b0490508560010154828760010154038760020154028115156116f457fe5b048660020181905550611714828760010154611afc90919063ffffffff16565b866001018190555082600101548184600101540384600201540281151561173757fe5b048360020181905550611757818460010154611afc90919063ffffffff16565b83600101819055506000808a1515151515815260200190815260200160002060009054906101000a900473ffffffffffffffffffffffffffffffffffffffff1673ffffffffffffffffffffffffffffffffffffffff1663a9059cbb8760000160009054906101000a900473ffffffffffffffffffffffffffffffffffffffff16836040518363ffffffff167c0100000000000000000000000000000000000000000000000000000000028152600401808373ffffffffffffffffffffffffffffffffffffffff1673ffffffffffffffffffffffffffffffffffffffff16815260200182815260200192505050602060405180830381600087803b15801561185d57600080fd5b505af1158015611871573d6000803e3d6000fd5b505050506040513d602081101561188757600080fd5b8101908080519060200190929190505050506000808a15151515815260200190815260200160002060009054906101000a900473ffffffffffffffffffffffffffffffffffffffff1673ffffffffffffffffffffffffffffffffffffffff1663a9059cbb8460000160009054906101000a900473ffffffffffffffffffffffffffffffffffffffff16846040518363ffffffff167c0100000000000000000000000000000000000000000000000000000000028152600401808373ffffffffffffffffffffffffffffffffffffffff1673ffffffffffffffffffffffffffffffffffffffff16815260200182815260200192505050602060405180830381600087803b15801561199657600080fd5b505af11580156119aa573d6000803e3d6000fd5b505050506040513d60208110156119c057600080fd5b8101908080519060200190929190505050506000836001015414806119e9575060008360020154145b156119fa576119f9891585611b1e565b5b611a048915610c6d565b9350600086600101541480611a1d575060008660020154145b15611a3857611a2c8989611b1e565b50505050505050611a45565b5050506115cb565b505050505b5050565b600060016000851515151581526020019081526020016000209050600081600001600084815260200190815260200160002060030154905080826000016000868152602001908152602001600020600301819055508282600001600086815260200190815260200160002060040181905550838260000160008581526020019081526020016000206003018190555083826000016000838152602001908152602001600020600401819055505050505050565b6000828211151515611b0d57600080fd5b600082840390508091505092915050565b6000600160008415151515815260200190815260200160002090506000816000016000848152602001908152602001600020905080600401548260000160008360030154815260200190815260200160002060040181905550806003015482600001600083600401548152602001908152602001600020600301819055506000808515151515815260200190815260200160002060009054906101000a900473ffffffffffffffffffffffffffffffffffffffff1673ffffffffffffffffffffffffffffffffffffffff1663a9059cbb8260000160009054906101000a900473ffffffffffffffffffffffffffffffffffffffff1683600101546040518363ffffffff167c0100000000000000000000000000000000000000000000000000000000028152600401808373ffffffffffffffffffffffffffffffffffffffff1673ffffffffffffffffffffffffffffffffffffffff16815260200182815260200192505050602060405180830381600087803b158015611c9d57600080fd5b505af1158015611cb1573d6000803e3d6000fd5b505050506040513d6020811015611cc757600080fd5b810190808051906020019092919050505050816000016000848152602001908152602001600020600080820160006101000a81549073ffffffffffffffffffffffffffffffffffffffff0219169055600182016000905560028201600090556003820160009055600482016000905550505050505056fea165627a7a723058209f83837d36a2383fad715f43cfbfd46373ed7044003aab21bd6764d964558a1d0029",
  "source": "pragma solidity ^0.5.2;\r\n\r\nimport \"openzeppelin-solidity/contracts/math/SafeMath.sol\";\r\nimport \"./Order.sol\";\r\nimport \"./lib/BytesConvert.sol\";\r\nimport \"./lib/ABI.sol\";\r\n\r\ncontract Orderbook is Order {\r\n    using BytesConvert for *;\r\n    using ABI for *;\r\n    // uint256 constant MAX = 2**127;\r\n\r\n    constructor () \r\n        public\r\n    {\r\n        Order memory order;\r\n        order.toAmount = 1;\r\n        OrderList storage book = books[false];\r\n        book.orders[bytes32(0)] = order;  \r\n        book = books[true]; \r\n        book.orders[bytes32(0)] = order;       \r\n    }\r\n\r\n    function getOrderType() \r\n        public\r\n        view\r\n        returns(bool)\r\n    {\r\n        address _sender = msg.sender;\r\n        require(_sender == address(token[true]) || _sender == address(token[false]), \"only WNTY and NUSD accepted\");\r\n        return _sender == address(token[true]);\r\n    }\r\n\r\n    // Token transfer's fallback\r\n    // bytes _data = uint256[2] = (toAmount, checkpoint)\r\n    // RULE : delegateCall never used\r\n    function tokenFallback(\r\n        address _from,\r\n        uint _value,\r\n        bytes calldata _data) \r\n        external\r\n    {\r\n        address maker = _from;\r\n        bool orderType = getOrderType();\r\n        uint256 fromAmount = _value;\r\n        uint256 toAmount;\r\n        bytes32 checkpoint;\r\n        (toAmount, checkpoint) = abi.decode(_data, (uint256, bytes32));\r\n        bytes32 _newId = insert(\r\n            orderType,\r\n            fromAmount,\r\n            toAmount,\r\n            maker,\r\n            checkpoint\r\n        );\r\n        pairing(orderType, _newId);\r\n    }\r\n\r\n    function pairing(\r\n        bool _orderType,\r\n        bytes32 _newId\r\n    )\r\n        private\r\n    {\r\n        OrderList storage book = books[_orderType];\r\n        Order storage _newOrder = book.orders[_newId];\r\n        OrderList storage oppoBook = books[!_orderType];\r\n        bytes32 _oppoTopId = top(!_orderType);\r\n        while (_oppoTopId[0] != 0) {\r\n            Order storage _oppoOrder = oppoBook.orders[_oppoTopId];\r\n            // if not pairable, return\r\n            if (_newOrder.fromAmount.mul(_oppoOrder.fromAmount) < _newOrder.toAmount.mul(_oppoOrder.toAmount)) return;\r\n            // token type = newOrder have\r\n            uint256 comfirmAmount_new = getMin(_newOrder.fromAmount, _oppoOrder.toAmount);\r\n            // token type = oppoOrder have\r\n            uint256 comfirmAmount_oppo = _oppoOrder.fromAmount * comfirmAmount_new / _oppoOrder.toAmount;\r\n            // comfirm price = _oppoOrder.fromAmount / _oppoOrder.toAmount\r\n            _newOrder.toAmount = _newOrder.toAmount * (_newOrder.fromAmount - comfirmAmount_new) / _newOrder.fromAmount;\r\n            _newOrder.fromAmount = _newOrder.fromAmount.sub(comfirmAmount_new);\r\n\r\n            _oppoOrder.toAmount = _oppoOrder.toAmount * (_oppoOrder.fromAmount - comfirmAmount_oppo) / _oppoOrder.fromAmount;\r\n            _oppoOrder.fromAmount = _oppoOrder.fromAmount.sub(comfirmAmount_oppo);\r\n\r\n            token[!_orderType].transfer(_newOrder.maker, comfirmAmount_oppo);\r\n            token[_orderType].transfer(_oppoOrder.maker, comfirmAmount_new);\r\n            if (_oppoOrder.fromAmount == 0 || _oppoOrder.toAmount == 0) _remove(!_orderType, _oppoTopId);\r\n            _oppoTopId = top(!_orderType);\r\n            if (_newOrder.fromAmount == 0 || _newOrder.toAmount == 0) {\r\n                _remove(_orderType, _newId);\r\n                return;\r\n            }\r\n        }\r\n        return;\r\n    }\r\n\r\n}",
  "sourcePath": "C:/Users/bestb/Desktop/workshop/nextyio/nytex/contracts/Orderbook.sol",
  "compiler": {
    "name": "solc",
    "version": "0.5.5+commit.47a71e8f.Emscripten.clang"
  },
  "schemaVersion": "3.0.2",
  "updatedAt": "2019-04-02T08:31:23.214Z",
  "devdoc": {
    "methods": {}
  },
  "userdoc": {
    "methods": {}
  }
}