{
  "contractName": "OrderBook",
  "abi": [
    {
      "constant": false,
      "inputs": [],
      "name": "stableTokenRegister",
      "outputs": [],
      "payable": false,
      "stateMutability": "nonpayable",
      "type": "function"
    },
    {
      "constant": false,
      "inputs": [],
      "name": "volatileTokenRegister",
      "outputs": [],
      "payable": false,
      "stateMutability": "nonpayable",
      "type": "function"
    },
    {
      "constant": false,
      "inputs": [
        {
          "name": "_orderType",
          "type": "bool"
        },
        {
          "name": "_haveAmount",
          "type": "uint256"
        },
        {
          "name": "_wantAmount",
          "type": "uint256"
        },
        {
          "name": "_maker",
          "type": "address"
        },
        {
          "name": "_assistingID",
          "type": "bytes32"
        }
      ],
      "name": "insert",
      "outputs": [
        {
          "name": "",
          "type": "bytes32"
        }
      ],
      "payable": false,
      "stateMutability": "nonpayable",
      "type": "function"
    },
    {
      "constant": true,
      "inputs": [
        {
          "name": "_orderType",
          "type": "bool"
        },
        {
          "name": "_id",
          "type": "bytes32"
        }
      ],
      "name": "validOrder",
      "outputs": [
        {
          "name": "",
          "type": "bool"
        }
      ],
      "payable": false,
      "stateMutability": "view",
      "type": "function"
    },
    {
      "constant": false,
      "inputs": [
        {
          "name": "_maker",
          "type": "address"
        },
        {
          "name": "_orderType",
          "type": "bool"
        },
        {
          "name": "_haveAmount",
          "type": "uint256"
        },
        {
          "name": "_wantAmount",
          "type": "uint256"
        }
      ],
      "name": "initOrder",
      "outputs": [
        {
          "name": "",
          "type": "bytes32"
        }
      ],
      "payable": false,
      "stateMutability": "nonpayable",
      "type": "function"
    },
    {
      "constant": false,
      "inputs": [
        {
          "name": "_orderType",
          "type": "bool"
        },
        {
          "name": "_id",
          "type": "bytes32"
        }
      ],
      "name": "remove",
      "outputs": [],
      "payable": false,
      "stateMutability": "nonpayable",
      "type": "function"
    },
    {
      "constant": true,
      "inputs": [
        {
          "name": "_orderType",
          "type": "bool"
        }
      ],
      "name": "top",
      "outputs": [
        {
          "name": "",
          "type": "bytes32"
        }
      ],
      "payable": false,
      "stateMutability": "view",
      "type": "function"
    },
    {
      "constant": true,
      "inputs": [
        {
          "name": "_orderType",
          "type": "bool"
        }
      ],
      "name": "bottom",
      "outputs": [
        {
          "name": "",
          "type": "bytes32"
        }
      ],
      "payable": false,
      "stateMutability": "view",
      "type": "function"
    },
    {
      "constant": true,
      "inputs": [
        {
          "name": "orderType",
          "type": "bool"
        },
        {
          "name": "_newId",
          "type": "bytes32"
        },
        {
          "name": "_oldId",
          "type": "bytes32"
        }
      ],
      "name": "betterOrder",
      "outputs": [
        {
          "name": "",
          "type": "bool"
        }
      ],
      "payable": false,
      "stateMutability": "view",
      "type": "function"
    },
    {
      "constant": true,
      "inputs": [
        {
          "name": "_orderType",
          "type": "bool"
        },
        {
          "name": "_id",
          "type": "bytes32"
        }
      ],
      "name": "getNext",
      "outputs": [
        {
          "name": "",
          "type": "bytes32"
        }
      ],
      "payable": false,
      "stateMutability": "view",
      "type": "function"
    },
    {
      "constant": true,
      "inputs": [
        {
          "name": "_orderType",
          "type": "bool"
        },
        {
          "name": "_id",
          "type": "bytes32"
        }
      ],
      "name": "getPrev",
      "outputs": [
        {
          "name": "",
          "type": "bytes32"
        }
      ],
      "payable": false,
      "stateMutability": "view",
      "type": "function"
    },
    {
      "constant": true,
      "inputs": [
        {
          "name": "_orderType",
          "type": "bool"
        },
        {
          "name": "_id",
          "type": "bytes32"
        }
      ],
      "name": "getOrder",
      "outputs": [
        {
          "name": "",
          "type": "address"
        },
        {
          "name": "",
          "type": "uint256"
        },
        {
          "name": "",
          "type": "uint256"
        },
        {
          "name": "",
          "type": "bytes32"
        },
        {
          "name": "",
          "type": "bytes32"
        }
      ],
      "payable": false,
      "stateMutability": "view",
      "type": "function"
    }
  ],
  "bytecode": "0x608060405260016003556112a9806100186000396000f3fe608060405234801561001057600080fd5b50600436106100d1576000357c0100000000000000000000000000000000000000000000000000000000900480638aa3f8971161008e5780638aa3f89714610250578063bc96b87214610294578063ce11ae661461030c578063ce24388f1461035a578063d39ecc95146103a8578063e3dd138f1461042a576100d1565b806307c399a3146100d65780631264a9901461016c578063174a5088146101765780634f657bb1146101ba57806369722e55146101c45780637234c79d146101fe575b600080fd5b61010e600480360360408110156100ec57600080fd5b8101908080351515906020019092919080359060200190929190505050610486565b604051808673ffffffffffffffffffffffffffffffffffffffff1673ffffffffffffffffffffffffffffffffffffffff1681526020018581526020018481526020018381526020018281526020019550505050505060405180910390f35b610174610510565b005b6101a46004803603602081101561018c57600080fd5b81019080803515159060200190929190505050610643565b6040518082815260200191505060405180910390f35b6101c2610683565b005b6101fc600480360360408110156101da57600080fd5b81019080803515159060200190929190803590602001909291905050506107b4565b005b6102366004803603604081101561021457600080fd5b8101908080351515906020019092919080359060200190929190505050610a9b565b604051808215151515815260200191505060405180910390f35b61027e6004803603602081101561026657600080fd5b81019080803515159060200190929190505050610ae2565b6040518082815260200191505060405180910390f35b6102f6600480360360808110156102aa57600080fd5b81019080803573ffffffffffffffffffffffffffffffffffffffff1690602001909291908035151590602001909291908035906020019092919080359060200190929190505050610b22565b6040518082815260200191505060405180910390f35b6103446004803603604081101561032257600080fd5b8101908080351515906020019092919080359060200190929190505050610e3f565b6040518082815260200191505060405180910390f35b6103926004803603604081101561037057600080fd5b8101908080351515906020019092919080359060200190929190505050610e7d565b6040518082815260200191505060405180910390f35b610414600480360360a08110156103be57600080fd5b810190808035151590602001909291908035906020019092919080359060200190929190803573ffffffffffffffffffffffffffffffffffffffff16906020019092919080359060200190929190505050610ebb565b6040518082815260200191505060405180910390f35b61046c6004803603606081101561044057600080fd5b8101908080351515906020019092919080359060200190929190803590602001909291905050506110c5565b604051808215151515815260200191505060405180910390f35b60008060008060008060016000891515151581526020019081526020016000209050600081600001600089815260200190815260200160002090508060000160009054906101000a900473ffffffffffffffffffffffffffffffffffffffff1681600101548260020154836003015484600401549650965096509650965050509295509295909350565b600073ffffffffffffffffffffffffffffffffffffffff16600080600115151515815260200190815260200160002060009054906101000a900473ffffffffffffffffffffffffffffffffffffffff1673ffffffffffffffffffffffffffffffffffffffff161415156105eb576040517f08c379a000000000000000000000000000000000000000000000000000000000815260040180806020018281038252600b8152602001807f616c72656164792073657400000000000000000000000000000000000000000081525060200191505060405180910390fd5b33600080600115151515815260200190815260200160002060006101000a81548173ffffffffffffffffffffffffffffffffffffffff021916908373ffffffffffffffffffffffffffffffffffffffff160217905550565b6000806001600084151515158152602001908152602001600020905080600001600080600102815260200190815260200160002060030154915050919050565b600073ffffffffffffffffffffffffffffffffffffffff166000808015151515815260200190815260200160002060009054906101000a900473ffffffffffffffffffffffffffffffffffffffff1673ffffffffffffffffffffffffffffffffffffffff1614151561075d576040517f08c379a000000000000000000000000000000000000000000000000000000000815260040180806020018281038252600b8152602001807f616c72656164792073657400000000000000000000000000000000000000000081525060200191505060405180910390fd5b336000808015151515815260200190815260200160002060006101000a81548173ffffffffffffffffffffffffffffffffffffffff021916908373ffffffffffffffffffffffffffffffffffffffff160217905550565b600060016000841515151581526020019081526020016000209050600081600001600084815260200190815260200160002090508060000160009054906101000a900473ffffffffffffffffffffffffffffffffffffffff1673ffffffffffffffffffffffffffffffffffffffff163373ffffffffffffffffffffffffffffffffffffffff161415156108af576040517f08c379a00000000000000000000000000000000000000000000000000000000081526004018080602001828103825260108152602001807f6f6e6c79206f72646572206f776e65720000000000000000000000000000000081525060200191505060405180910390fd5b80600401548260000160008360030154815260200190815260200160002060040181905550806003015482600001600083600401548152602001908152602001600020600301819055506000808515151515815260200190815260200160002060009054906101000a900473ffffffffffffffffffffffffffffffffffffffff1673ffffffffffffffffffffffffffffffffffffffff1663a9059cbb8260000160009054906101000a900473ffffffffffffffffffffffffffffffffffffffff1683600101546040518363ffffffff167c0100000000000000000000000000000000000000000000000000000000028152600401808373ffffffffffffffffffffffffffffffffffffffff1673ffffffffffffffffffffffffffffffffffffffff16815260200182815260200192505050602060405180830381600087803b1580156109fa57600080fd5b505af1158015610a0e573d6000803e3d6000fd5b505050506040513d6020811015610a2457600080fd5b810190808051906020019092919050505050816000016000848152602001908152602001600020600080820160006101000a81549073ffffffffffffffffffffffffffffffffffffffff02191690556001820160009055600282016000905560038201600090556004820160009055505050505050565b600080600160008515151515815260200190815260200160002090506000816000016000858152602001908152602001600020905060008160020154119250505092915050565b6000806001600084151515158152602001908152602001600020905080600001600080600102815260200190815260200160002060040154915050919050565b60008083118015610b335750600082115b1515610ba7576040517f08c379a000000000000000000000000000000000000000000000000000000000815260040180806020018281038252600e8152602001807f7361766520796f75722074696d6500000000000000000000000000000000000081525060200191505060405180910390fd5b600260008673ffffffffffffffffffffffffffffffffffffffff1673ffffffffffffffffffffffffffffffffffffffff168152602001908152602001600020600081548092919060010191905055506000600160008615151515815260200190815260200160002090506000600287600260008a73ffffffffffffffffffffffffffffffffffffffff1673ffffffffffffffffffffffffffffffffffffffff168152602001908152602001600020548787604051602001808573ffffffffffffffffffffffffffffffffffffffff1673ffffffffffffffffffffffffffffffffffffffff166c010000000000000000000000000281526014018481526020018381526020018281526020019450505050506040516020818303038152906040526040518082805190602001908083835b602083101515610cfc5780518252602082019150602081019050602083039250610cd7565b6001836020036101000a038019825116818451168082178552505050505050905001915050602060405180830381855afa158015610d3e573d6000803e3d6000fd5b5050506040513d6020811015610d5357600080fd5b810190808051906020019092919050505090506040518060a001604052808873ffffffffffffffffffffffffffffffffffffffff16815260200186815260200185815260200160006001028152602001600060010281525082600001600083815260200190815260200160002060008201518160000160006101000a81548173ffffffffffffffffffffffffffffffffffffffff021916908373ffffffffffffffffffffffffffffffffffffffff160217905550602082015181600101556040820151816002015560608201518160030155608082015181600401559050508092505050949350505050565b600080600160008515151515815260200190815260200160002090508060000160008481526020019081526020016000206003015491505092915050565b600080600160008515151515815260200190815260200160002090508060000160008481526020019081526020016000206004015491505092915050565b6000610ec78683610a9b565b1515610f3b576040517f08c379a000000000000000000000000000000000000000000000000000000000815260040180806020018281038252600d8152602001807f7361766520796f7572206761730000000000000000000000000000000000000081525060200191505060405180910390fd5b6000600160008815151515815260200190815260200160002090506000610f6485898989610b22565b90506000849050610f768983836110c5565b1515610fc4575b610f888983836110c5565b1515610fae57826000016000828152602001908152602001600020600401549050610f7d565b610fb989838361118c565b8193505050506110bc565b8260000160008281526020019081526020016000206003015490505b60007f01000000000000000000000000000000000000000000000000000000000000000281600060208110151561101357fe5b1a7f0100000000000000000000000000000000000000000000000000000000000000027effffffffffffffffffffffffffffffffffffffffffffffffffffffffffffff19161415801561106d575061106c8983836110c5565b5b1561109257826000016000828152602001908152602001600020600301549050610fe0565b6110b589838560000160008581526020019081526020016000206004015461118c565b8193505050505b95945050505050565b600080600160008615151515815260200190815260200160002090506000816000016000868152602001908152602001600020905060008260000160008681526020019081526020016000209050600061114360646111358460020154866001015461123f90919063ffffffff16565b61123f90919063ffffffff16565b9050600061117960035460640161116b8660020154866001015461123f90919063ffffffff16565b61123f90919063ffffffff16565b9050808211955050505050509392505050565b600060016000851515151581526020019081526020016000209050600081600001600084815260200190815260200160002060030154905080826000016000868152602001908152602001600020600301819055508282600001600086815260200190815260200160002060040181905550838260000160008581526020019081526020016000206003018190555083826000016000838152602001908152602001600020600401819055505050505050565b6000808314156112525760009050611277565b6000828402905082848281151561126557fe5b0414151561127257600080fd5b809150505b9291505056fea165627a7a72305820c9ec6fe6c978f5f4a7cbfe376aca930d18787a98d6f2b91c1d6db589dfa83b4b0029",
  "source": "pragma solidity ^0.5.2;\r\n\r\nimport \"openzeppelin-solidity/contracts/math/SafeMath.sol\";\r\nimport \"./DataSet.sol\";\r\nimport \"./Initializer.sol\";\r\n\r\ncontract OrderBook is Initializer, DataSet {\r\n    using SafeMath for uint256;\r\n    // Stepping price param\r\n    // Define T as the half of the price percentage step\r\n    // New orders with price fall between (1/(100+T))% and (100+T)% of an existing order, should belong to a same group/bucket.\r\n    uint256 internal T = 1;\r\n\r\n    function insert(\r\n        bool _orderType,\r\n        uint256 _haveAmount,\r\n        uint256 _wantAmount,\r\n        address _maker,\r\n        bytes32 _assistingID\r\n        ) \r\n        public\r\n \t    returns (bytes32) \r\n    {\r\n        require(validOrder(_orderType, _assistingID), \"save your gas\");\r\n        OrderList storage book = books[_orderType];\r\n        bytes32 newID = initOrder(_maker, _orderType, _haveAmount, _wantAmount);\r\n\r\n        // direction to bottom, search first order, that new order better than\r\n        bytes32 id = _assistingID;\r\n        if (!betterOrder(_orderType, newID, id)) {\r\n            // order[newID] always better than oder[0] with price = 0\r\n            // if price of order[newID] = 0 => throw cause infinite loop\r\n            while (!betterOrder(_orderType, newID, id)) {\r\n                id = book.orders[id].next;\r\n            }\r\n            insertBefore(_orderType, newID, id);\r\n            return newID;\r\n        }\r\n        id = book.orders[id].prev;\r\n        // direction to top, search first order that new order not better than\r\n        // this part triggered only if new order not better than assistingID order\r\n        while (id[0] != 0 && betterOrder(_orderType, newID, id)) {\r\n            id = book.orders[id].prev;\r\n        }\r\n        insertBefore(_orderType, newID, book.orders[id].next);\r\n        return newID;\r\n    }\r\n\r\n    // inseter _id as prev element of _next\r\n    function insertBefore(\r\n        bool _orderType,\r\n        bytes32 _id,\r\n        bytes32 _next\r\n    )\r\n        private\r\n    {\r\n        // _prev => _id => _next\r\n        OrderList storage book = books[_orderType];\r\n        bytes32 _prev = book.orders[_next].prev;\r\n        book.orders[_id].prev = _prev;\r\n        book.orders[_id].next = _next;\r\n        book.orders[_next].prev = _id;\r\n        book.orders[_prev].next = _id;\r\n    }\r\n\r\n    function validOrder(\r\n        bool _orderType,\r\n        bytes32 _id\r\n    )\r\n        public\r\n        view\r\n        returns(bool)\r\n    {\r\n        OrderList storage book = books[_orderType];\r\n        Order storage _order = book.orders[_id];\r\n        return _order.wantAmount > 0;\r\n    }\r\n\r\n    function initOrder(\r\n        address _maker,\r\n        bool _orderType,\r\n        uint256 _haveAmount,\r\n        uint256 _wantAmount\r\n    )\r\n        public\r\n        returns (bytes32)\r\n    {\r\n        require(_haveAmount > 0 && _wantAmount > 0, \"save your time\");\r\n        pNonce[_maker]++;\r\n        OrderList storage book = books[_orderType];\r\n        bytes32 id = sha256(abi.encodePacked(_maker, pNonce[_maker], _haveAmount, _wantAmount));\r\n        book.orders[id] = Order(_maker, _haveAmount, _wantAmount, 0, 0);\r\n        return id;\r\n    }\r\n\r\n    function _remove(bool _orderType, bytes32 _id) internal {\r\n        OrderList storage book = books[_orderType];\r\n        Order storage order = book.orders[_id];\r\n        // before: prev => order =>next\r\n        // after: prev => next\r\n        book.orders[order.prev].next = order.next;\r\n        book.orders[order.next].prev = order.prev;\r\n        token[_orderType].transfer(order.maker, order.haveAmount);\r\n        delete book.orders[_id];\r\n    }\r\n\r\n    function remove(bool _orderType, bytes32 _id) public {\r\n        OrderList storage book = books[_orderType];\r\n        Order storage order = book.orders[_id];\r\n        require(msg.sender == order.maker, \"only order owner\");\r\n        // before: prev => order =>next\r\n        // after: prev => next\r\n        book.orders[order.prev].next = order.next;\r\n        book.orders[order.next].prev = order.prev;\r\n        token[_orderType].transfer(order.maker, order.haveAmount);\r\n        delete book.orders[_id];\r\n    }\r\n\r\n    function _setT(uint256 _T) private {\r\n        T = _T;\r\n    }\r\n\r\n    // read functions\r\n    function top(\r\n        bool _orderType\r\n    )\r\n        public\r\n        view\r\n        returns (bytes32)\r\n    {\r\n        OrderList storage book = books[_orderType];\r\n        return book.orders[bytes32(0)].next;\r\n    }\r\n\r\n    function bottom(\r\n        bool _orderType\r\n    )\r\n        public\r\n        view\r\n        returns (bytes32)\r\n    {\r\n        OrderList storage book = books[_orderType];\r\n        return book.orders[bytes32(0)].prev;\r\n    }\r\n\r\n    function betterOrder(\r\n        bool orderType,\r\n        bytes32 _newId,\r\n        bytes32 _oldId\r\n    )\r\n        public\r\n        view\r\n        returns (bool)\r\n    {\r\n        OrderList storage book = books[orderType];\r\n        Order storage _new = book.orders[_newId];\r\n        Order storage _old = book.orders[_oldId];\r\n        // stepping price\r\n        // newWant / newHave < (oldWant / oldHave) * (100 / (100 + T))\r\n        uint256 a = _new.haveAmount.mul(_old.wantAmount).mul(100);\r\n        uint256 b = _old.haveAmount.mul(_new.wantAmount).mul(100 + T);\r\n        return a > b;\r\n    }\r\n\r\n    function getNext(\r\n        bool _orderType,\r\n        bytes32 _id\r\n    )\r\n        public\r\n        view\r\n        returns (bytes32)\r\n    {\r\n        OrderList storage book = books[_orderType];\r\n        return book.orders[_id].next;\r\n    }\r\n\r\n    function getPrev(\r\n        bool _orderType,\r\n        bytes32 _id\r\n    )\r\n        public\r\n        view\r\n        returns (bytes32)\r\n    {\r\n        OrderList storage book = books[_orderType];\r\n        return book.orders[_id].prev;\r\n    }\r\n\r\n    function getOrder(\r\n        bool _orderType,\r\n        bytes32 _id\r\n    )\r\n        public\r\n        view\r\n        returns (\r\n            address,\r\n            uint256,\r\n            uint256,\r\n            bytes32,\r\n            bytes32\r\n        )\r\n    {\r\n        OrderList storage book = books[_orderType];\r\n        Order storage order = book.orders[_id];\r\n        return (order.maker, order.haveAmount, order.wantAmount, order.prev, order.next);\r\n    }\r\n}",
  "sourcePath": "C:\\Users\\bestb\\Desktop\\workshop\\nextyio\\nytex\\contracts\\OrderBook.sol",
  "compiler": {
    "name": "solc",
    "version": "0.5.5+commit.47a71e8f.Emscripten.clang"
  },
  "schemaVersion": "3.0.2",
  "updatedAt": "2019-04-09T07:14:14.316Z",
  "devdoc": {
    "methods": {}
  },
  "userdoc": {
    "methods": {}
  }
}