{
  "contractName": "PairEx",
  "abi": [
    {
      "constant": true,
      "inputs": [
        {
          "name": "_orderType",
          "type": "bool"
        },
        {
          "name": "_id",
          "type": "bytes32"
        }
      ],
      "name": "getOrder",
      "outputs": [
        {
          "name": "",
          "type": "address"
        },
        {
          "name": "",
          "type": "uint256"
        },
        {
          "name": "",
          "type": "uint256"
        },
        {
          "name": "",
          "type": "bytes32"
        },
        {
          "name": "",
          "type": "bytes32"
        }
      ],
      "payable": false,
      "stateMutability": "view",
      "type": "function",
      "signature": "0x07c399a3"
    },
    {
      "constant": false,
      "inputs": [],
      "name": "stableTokenRegister",
      "outputs": [],
      "payable": false,
      "stateMutability": "nonpayable",
      "type": "function",
      "signature": "0x1264a990"
    },
    {
      "constant": true,
      "inputs": [
        {
          "name": "_orderType",
          "type": "bool"
        }
      ],
      "name": "bottom",
      "outputs": [
        {
          "name": "",
          "type": "bytes32"
        }
      ],
      "payable": false,
      "stateMutability": "view",
      "type": "function",
      "signature": "0x174a5088"
    },
    {
      "constant": false,
      "inputs": [],
      "name": "volatileTokenRegister",
      "outputs": [],
      "payable": false,
      "stateMutability": "nonpayable",
      "type": "function",
      "signature": "0x4f657bb1"
    },
    {
      "constant": false,
      "inputs": [
        {
          "name": "_orderType",
          "type": "bool"
        },
        {
          "name": "_id",
          "type": "bytes32"
        }
      ],
      "name": "remove",
      "outputs": [],
      "payable": false,
      "stateMutability": "nonpayable",
      "type": "function",
      "signature": "0x69722e55"
    },
    {
      "constant": true,
      "inputs": [
        {
          "name": "_orderType",
          "type": "bool"
        },
        {
          "name": "_id",
          "type": "bytes32"
        }
      ],
      "name": "validOrder",
      "outputs": [
        {
          "name": "",
          "type": "bool"
        }
      ],
      "payable": false,
      "stateMutability": "view",
      "type": "function",
      "signature": "0x7234c79d"
    },
    {
      "constant": true,
      "inputs": [
        {
          "name": "_orderType",
          "type": "bool"
        }
      ],
      "name": "top",
      "outputs": [
        {
          "name": "",
          "type": "bytes32"
        }
      ],
      "payable": false,
      "stateMutability": "view",
      "type": "function",
      "signature": "0x8aa3f897"
    },
    {
      "constant": false,
      "inputs": [
        {
          "name": "_maker",
          "type": "address"
        },
        {
          "name": "_orderType",
          "type": "bool"
        },
        {
          "name": "_haveAmount",
          "type": "uint256"
        },
        {
          "name": "_wantAmount",
          "type": "uint256"
        }
      ],
      "name": "initOrder",
      "outputs": [
        {
          "name": "",
          "type": "bytes32"
        }
      ],
      "payable": false,
      "stateMutability": "nonpayable",
      "type": "function",
      "signature": "0xbc96b872"
    },
    {
      "constant": true,
      "inputs": [
        {
          "name": "_orderType",
          "type": "bool"
        },
        {
          "name": "_id",
          "type": "bytes32"
        }
      ],
      "name": "getPrev",
      "outputs": [
        {
          "name": "",
          "type": "bytes32"
        }
      ],
      "payable": false,
      "stateMutability": "view",
      "type": "function",
      "signature": "0xce11ae66"
    },
    {
      "constant": true,
      "inputs": [
        {
          "name": "_orderType",
          "type": "bool"
        },
        {
          "name": "_id",
          "type": "bytes32"
        }
      ],
      "name": "getNext",
      "outputs": [
        {
          "name": "",
          "type": "bytes32"
        }
      ],
      "payable": false,
      "stateMutability": "view",
      "type": "function",
      "signature": "0xce24388f"
    },
    {
      "constant": false,
      "inputs": [
        {
          "name": "_orderType",
          "type": "bool"
        },
        {
          "name": "_haveAmount",
          "type": "uint256"
        },
        {
          "name": "_wantAmount",
          "type": "uint256"
        },
        {
          "name": "_maker",
          "type": "address"
        },
        {
          "name": "_assistingID",
          "type": "bytes32"
        }
      ],
      "name": "insert",
      "outputs": [
        {
          "name": "",
          "type": "bytes32"
        }
      ],
      "payable": false,
      "stateMutability": "nonpayable",
      "type": "function",
      "signature": "0xd39ecc95"
    },
    {
      "constant": true,
      "inputs": [
        {
          "name": "orderType",
          "type": "bool"
        },
        {
          "name": "_newId",
          "type": "bytes32"
        },
        {
          "name": "_oldId",
          "type": "bytes32"
        }
      ],
      "name": "betterOrder",
      "outputs": [
        {
          "name": "",
          "type": "bool"
        }
      ],
      "payable": false,
      "stateMutability": "view",
      "type": "function",
      "signature": "0xe3dd138f"
    },
    {
      "inputs": [],
      "payable": false,
      "stateMutability": "nonpayable",
      "type": "constructor",
      "signature": "constructor"
    },
    {
      "constant": true,
      "inputs": [],
      "name": "getOrderType",
      "outputs": [
        {
          "name": "",
          "type": "bool"
        }
      ],
      "payable": false,
      "stateMutability": "view",
      "type": "function",
      "signature": "0x55ebd76d"
    },
    {
      "constant": false,
      "inputs": [
        {
          "name": "_from",
          "type": "address"
        },
        {
          "name": "_value",
          "type": "uint256"
        },
        {
          "name": "_data",
          "type": "bytes"
        }
      ],
      "name": "tokenFallback",
      "outputs": [],
      "payable": false,
      "stateMutability": "nonpayable",
      "type": "function",
      "signature": "0xc0ee0b8a"
    },
    {
      "constant": true,
      "inputs": [
        {
          "name": "_orderType",
          "type": "bool"
        },
        {
          "name": "_stableTokenTarget",
          "type": "uint256"
        }
      ],
      "name": "orderToFill",
      "outputs": [
        {
          "name": "",
          "type": "uint256"
        },
        {
          "name": "",
          "type": "uint256"
        }
      ],
      "payable": false,
      "stateMutability": "view",
      "type": "function",
      "signature": "0x7e01b4f1"
    }
  ],
  "bytecode": "0x6080604052600160035561271060045534801561001b57600080fd5b50610024610178565b6001816040018181525050806001600080151515158152602001908152602001600020600001600080600102815260200190815260200160002060008201518160000160006101000a81548173ffffffffffffffffffffffffffffffffffffffff021916908373ffffffffffffffffffffffffffffffffffffffff1602179055506020820151816001015560408201518160020155606082015181600301556080820151816004015590505080600160006001151515158152602001908152602001600020600001600080600102815260200190815260200160002060008201518160000160006101000a81548173ffffffffffffffffffffffffffffffffffffffff021916908373ffffffffffffffffffffffffffffffffffffffff16021790555060208201518160010155604082015181600201556060820151816003015560808201518160040155905050506101c3565b6040518060a00160405280600073ffffffffffffffffffffffffffffffffffffffff168152602001600081526020016000815260200160008019168152602001600080191681525090565b612043806101d26000396000f3fe608060405234801561001057600080fd5b5060043610610112576000357c0100000000000000000000000000000000000000000000000000000000900480637e01b4f1116100b4578063ce11ae6611610083578063ce11ae6614610467578063ce24388f146104b5578063d39ecc9514610503578063e3dd138f1461058557610112565b80637e01b4f1146102b35780638aa3f89714610308578063bc96b8721461034c578063c0ee0b8a146103c457610112565b80634f657bb1116100f05780634f657bb1146101fb57806355ebd76d1461020557806369722e55146102275780637234c79d1461026157610112565b806307c399a3146101175780631264a990146101ad578063174a5088146101b7575b600080fd5b61014f6004803603604081101561012d57600080fd5b81019080803515159060200190929190803590602001909291905050506105e1565b604051808673ffffffffffffffffffffffffffffffffffffffff1673ffffffffffffffffffffffffffffffffffffffff1681526020018581526020018481526020018381526020018281526020019550505050505060405180910390f35b6101b561066b565b005b6101e5600480360360208110156101cd57600080fd5b8101908080351515906020019092919050505061079e565b6040518082815260200191505060405180910390f35b6102036107de565b005b61020d61090f565b604051808215151515815260200191505060405180910390f35b61025f6004803603604081101561023d57600080fd5b8101908080351515906020019092919080359060200190929190505050610aaa565b005b6102996004803603604081101561027757600080fd5b8101908080351515906020019092919080359060200190929190505050610d91565b604051808215151515815260200191505060405180910390f35b6102eb600480360360408110156102c957600080fd5b8101908080351515906020019092919080359060200190929190505050610dd8565b604051808381526020018281526020019250505060405180910390f35b6103366004803603602081101561031e57600080fd5b81019080803515159060200190929190505050610fb9565b6040518082815260200191505060405180910390f35b6103ae6004803603608081101561036257600080fd5b81019080803573ffffffffffffffffffffffffffffffffffffffff1690602001909291908035151590602001909291908035906020019092919080359060200190929190505050610ff9565b6040518082815260200191505060405180910390f35b610465600480360360608110156103da57600080fd5b81019080803573ffffffffffffffffffffffffffffffffffffffff169060200190929190803590602001909291908035906020019064010000000081111561042157600080fd5b82018360208201111561043357600080fd5b8035906020019184600183028401116401000000008311171561045557600080fd5b9091929391929390505050611316565b005b61049f6004803603604081101561047d57600080fd5b81019080803515159060200190929190803590602001909291905050506113c0565b6040518082815260200191505060405180910390f35b6104ed600480360360408110156104cb57600080fd5b81019080803515159060200190929190803590602001909291905050506113fe565b6040518082815260200191505060405180910390f35b61056f600480360360a081101561051957600080fd5b810190808035151590602001909291908035906020019092919080359060200190929190803573ffffffffffffffffffffffffffffffffffffffff1690602001909291908035906020019092919050505061143c565b6040518082815260200191505060405180910390f35b6105c76004803603606081101561059b57600080fd5b810190808035151590602001909291908035906020019092919080359060200190929190505050611646565b604051808215151515815260200191505060405180910390f35b60008060008060008060016000891515151581526020019081526020016000209050600081600001600089815260200190815260200160002090508060000160009054906101000a900473ffffffffffffffffffffffffffffffffffffffff1681600101548260020154836003015484600401549650965096509650965050509295509295909350565b600073ffffffffffffffffffffffffffffffffffffffff16600080600115151515815260200190815260200160002060009054906101000a900473ffffffffffffffffffffffffffffffffffffffff1673ffffffffffffffffffffffffffffffffffffffff16141515610746576040517f08c379a000000000000000000000000000000000000000000000000000000000815260040180806020018281038252600b8152602001807f616c72656164792073657400000000000000000000000000000000000000000081525060200191505060405180910390fd5b33600080600115151515815260200190815260200160002060006101000a81548173ffffffffffffffffffffffffffffffffffffffff021916908373ffffffffffffffffffffffffffffffffffffffff160217905550565b6000806001600084151515158152602001908152602001600020905080600001600080600102815260200190815260200160002060030154915050919050565b600073ffffffffffffffffffffffffffffffffffffffff166000808015151515815260200190815260200160002060009054906101000a900473ffffffffffffffffffffffffffffffffffffffff1673ffffffffffffffffffffffffffffffffffffffff161415156108b8576040517f08c379a000000000000000000000000000000000000000000000000000000000815260040180806020018281038252600b8152602001807f616c72656164792073657400000000000000000000000000000000000000000081525060200191505060405180910390fd5b336000808015151515815260200190815260200160002060006101000a81548173ffffffffffffffffffffffffffffffffffffffff021916908373ffffffffffffffffffffffffffffffffffffffff160217905550565b600080339050600080600115151515815260200190815260200160002060009054906101000a900473ffffffffffffffffffffffffffffffffffffffff1673ffffffffffffffffffffffffffffffffffffffff168173ffffffffffffffffffffffffffffffffffffffff1614806109e757506000808015151515815260200190815260200160002060009054906101000a900473ffffffffffffffffffffffffffffffffffffffff1673ffffffffffffffffffffffffffffffffffffffff168173ffffffffffffffffffffffffffffffffffffffff16145b1515610a3e576040517f08c379a000000000000000000000000000000000000000000000000000000000815260040180806020018281038252602b815260200180611fed602b913960400191505060405180910390fd5b600080600115151515815260200190815260200160002060009054906101000a900473ffffffffffffffffffffffffffffffffffffffff1673ffffffffffffffffffffffffffffffffffffffff168173ffffffffffffffffffffffffffffffffffffffff161491505090565b600060016000841515151581526020019081526020016000209050600081600001600084815260200190815260200160002090508060000160009054906101000a900473ffffffffffffffffffffffffffffffffffffffff1673ffffffffffffffffffffffffffffffffffffffff163373ffffffffffffffffffffffffffffffffffffffff16141515610ba5576040517f08c379a00000000000000000000000000000000000000000000000000000000081526004018080602001828103825260108152602001807f6f6e6c79206f72646572206f776e65720000000000000000000000000000000081525060200191505060405180910390fd5b80600401548260000160008360030154815260200190815260200160002060040181905550806003015482600001600083600401548152602001908152602001600020600301819055506000808515151515815260200190815260200160002060009054906101000a900473ffffffffffffffffffffffffffffffffffffffff1673ffffffffffffffffffffffffffffffffffffffff1663a9059cbb8260000160009054906101000a900473ffffffffffffffffffffffffffffffffffffffff1683600101546040518363ffffffff167c0100000000000000000000000000000000000000000000000000000000028152600401808373ffffffffffffffffffffffffffffffffffffffff1673ffffffffffffffffffffffffffffffffffffffff16815260200182815260200192505050602060405180830381600087803b158015610cf057600080fd5b505af1158015610d04573d6000803e3d6000fd5b505050506040513d6020811015610d1a57600080fd5b810190808051906020019092919050505050816000016000848152602001908152602001600020600080820160006101000a81549073ffffffffffffffffffffffffffffffffffffffff02191690556001820160009055600282016000905560038201600090556004820160009055505050505050565b600080600160008515151515815260200190815260200160002090506000816000016000858152602001908152602001600020905060008160020154119250505092915050565b6000806000600160008615151515815260200190815260200160002090506000806000610e0488610fb9565b90505b60007f010000000000000000000000000000000000000000000000000000000000000002816000602081101515610e3a57fe5b1a7f0100000000000000000000000000000000000000000000000000000000000000027effffffffffffffffffffffffffffffffffffffffffffffffffffffffffffff191614158015610e8c57508683105b15610fa75760008460000160008381526020019081526020016000209050600089610ebb578160020154610ec1565b81600101545b905060008a610ed4578260010154610eda565b82600201545b905089610ef0838861170f90919063ffffffff16565b1115610f6e576000610f0b878c61173090919063ffffffff16565b90506000610f3484610f26848661175290919063ffffffff16565b61179090919063ffffffff16565b9050610f49818861170f90919063ffffffff16565b610f5c838a61170f90919063ffffffff16565b9a509a50505050505050505050610fb2565b610f81818661170f90919063ffffffff16565b9450610f96828761170f90919063ffffffff16565b955082600401549350505050610e07565b818395509550505050505b9250929050565b6000806001600084151515158152602001908152602001600020905080600001600080600102815260200190815260200160002060040154915050919050565b6000808311801561100a5750600082115b151561107e576040517f08c379a000000000000000000000000000000000000000000000000000000000815260040180806020018281038252600e8152602001807f7361766520796f75722074696d6500000000000000000000000000000000000081525060200191505060405180910390fd5b600260008673ffffffffffffffffffffffffffffffffffffffff1673ffffffffffffffffffffffffffffffffffffffff168152602001908152602001600020600081548092919060010191905055506000600160008615151515815260200190815260200160002090506000600287600260008a73ffffffffffffffffffffffffffffffffffffffff1673ffffffffffffffffffffffffffffffffffffffff168152602001908152602001600020548787604051602001808573ffffffffffffffffffffffffffffffffffffffff1673ffffffffffffffffffffffffffffffffffffffff166c010000000000000000000000000281526014018481526020018381526020018281526020019450505050506040516020818303038152906040526040518082805190602001908083835b6020831015156111d357805182526020820191506020810190506020830392506111ae565b6001836020036101000a038019825116818451168082178552505050505050905001915050602060405180830381855afa158015611215573d6000803e3d6000fd5b5050506040513d602081101561122a57600080fd5b810190808051906020019092919050505090506040518060a001604052808873ffffffffffffffffffffffffffffffffffffffff16815260200186815260200185815260200160006001028152602001600060010281525082600001600083815260200190815260200160002060008201518160000160006101000a81548173ffffffffffffffffffffffffffffffffffffffff021916908373ffffffffffffffffffffffffffffffffffffffff160217905550602082015181600101556040820151816002015560608201518160030155608082015181600401559050508092505050949350505050565b6000849050600061132561090f565b905060008590506000806020878790501461136a578686604081101561134a57600080fd5b810190808035906020019092919080359060200190929190505050611391565b8686602081101561137a57600080fd5b810190808035906020019092919050505060006001025b809250819350505060006113a8858585898661143c565b90506113b485826117ba565b50505050505050505050565b600080600160008515151515815260200190815260200160002090508060000160008481526020019081526020016000206003015491505092915050565b600080600160008515151515815260200190815260200160002090508060000160008481526020019081526020016000206004015491505092915050565b60006114488683610d91565b15156114bc576040517f08c379a000000000000000000000000000000000000000000000000000000000815260040180806020018281038252600d8152602001807f7361766520796f7572206761730000000000000000000000000000000000000081525060200191505060405180910390fd5b60006001600088151515158152602001908152602001600020905060006114e585898989610ff9565b905060008490506114f7898383611646565b1515611545575b611509898383611646565b151561152f578260000160008281526020019081526020016000206004015490506114fe565b61153a898383611d00565b81935050505061163d565b8260000160008281526020019081526020016000206003015490505b60007f01000000000000000000000000000000000000000000000000000000000000000281600060208110151561159457fe5b1a7f0100000000000000000000000000000000000000000000000000000000000000027effffffffffffffffffffffffffffffffffffffffffffffffffffffffffffff1916141580156115ee57506115ed898383611646565b5b1561161357826000016000828152602001908152602001600020600301549050611561565b611636898385600001600085815260200190815260200160002060040154611d00565b8193505050505b95945050505050565b60008060016000861515151581526020019081526020016000209050600081600001600086815260200190815260200160002090506000826000016000868152602001908152602001600020905060006116c56004546116b78460020154866001015461175290919063ffffffff16565b61175290919063ffffffff16565b905060006116fc600354600454016116ee8660020154866001015461175290919063ffffffff16565b61175290919063ffffffff16565b9050808211955050505050509392505050565b600080828401905083811015151561172657600080fd5b8091505092915050565b600082821115151561174157600080fd5b600082840390508091505092915050565b600080831415611765576000905061178a565b6000828402905082848281151561177857fe5b0414151561178557600080fd5b809150505b92915050565b600080821115156117a057600080fd5b600082848115156117ad57fe5b0490508091505092915050565b60008215905060006001600085151515158152602001908152602001600020905060008160000160008581526020019081526020016000209050600060016000851515151581526020019081526020016000209050600061181a85610fb9565b90505b60007f01000000000000000000000000000000000000000000000000000000000000000281600060208110151561185057fe5b1a7f0100000000000000000000000000000000000000000000000000000000000000027effffffffffffffffffffffffffffffffffffffffffffffffffffffffffffff1916141515611cf657600082600001600083815260200190815260200160002090506118d08160020154856002015461175290919063ffffffff16565b6118eb8260010154866001015461175290919063ffffffff16565b10156118fc57505050505050611cfc565b600061191085600101548360020154611db3565b9050611955856001015461194761193484896001015461173090919063ffffffff16565b886002015461175290919063ffffffff16565b61179090919063ffffffff16565b856002018190555061197481866001015461173090919063ffffffff16565b856001018190555060006119ab836002015461199d84866001015461175290919063ffffffff16565b61179090919063ffffffff16565b90506119f083600101546119e26119cf84876001015461173090919063ffffffff16565b866002015461175290919063ffffffff16565b61179090919063ffffffff16565b8360020181905550611a0f81846001015461173090919063ffffffff16565b83600101819055506000808915151515815260200190815260200160002060009054906101000a900473ffffffffffffffffffffffffffffffffffffffff1673ffffffffffffffffffffffffffffffffffffffff1663a9059cbb8760000160009054906101000a900473ffffffffffffffffffffffffffffffffffffffff16836040518363ffffffff167c0100000000000000000000000000000000000000000000000000000000028152600401808373ffffffffffffffffffffffffffffffffffffffff1673ffffffffffffffffffffffffffffffffffffffff16815260200182815260200192505050602060405180830381600087803b158015611b1457600080fd5b505af1158015611b28573d6000803e3d6000fd5b505050506040513d6020811015611b3e57600080fd5b8101908080519060200190929190505050506000808b15151515815260200190815260200160002060009054906101000a900473ffffffffffffffffffffffffffffffffffffffff1673ffffffffffffffffffffffffffffffffffffffff1663a9059cbb8460000160009054906101000a900473ffffffffffffffffffffffffffffffffffffffff16846040518363ffffffff167c0100000000000000000000000000000000000000000000000000000000028152600401808373ffffffffffffffffffffffffffffffffffffffff1673ffffffffffffffffffffffffffffffffffffffff16815260200182815260200192505050602060405180830381600087803b158015611c4d57600080fd5b505af1158015611c61573d6000803e3d6000fd5b505050506040513d6020811015611c7757600080fd5b810190808051906020019092919050505050600083600101541480611ca0575060008360020154145b15611cb057611caf8885611dcc565b5b611cb988610fb9565b9350600086600101541480611cd2575060008660020154145b15611cee57611ce18a8a611dcc565b5050505050505050611cfc565b50505061181d565b50505050505b5050565b600060016000851515151581526020019081526020016000209050600081600001600084815260200190815260200160002060030154905080826000016000868152602001908152602001600020600301819055508282600001600086815260200190815260200160002060040181905550838260000160008581526020019081526020016000206003018190555083826000016000838152602001908152602001600020600401819055505050505050565b6000818310611dc25781611dc4565b825b905092915050565b6000600160008415151515815260200190815260200160002090506000816000016000848152602001908152602001600020905080600401548260000160008360030154815260200190815260200160002060040181905550806003015482600001600083600401548152602001908152602001600020600301819055506000808515151515815260200190815260200160002060009054906101000a900473ffffffffffffffffffffffffffffffffffffffff1673ffffffffffffffffffffffffffffffffffffffff1663a9059cbb8260000160009054906101000a900473ffffffffffffffffffffffffffffffffffffffff1683600101546040518363ffffffff167c0100000000000000000000000000000000000000000000000000000000028152600401808373ffffffffffffffffffffffffffffffffffffffff1673ffffffffffffffffffffffffffffffffffffffff16815260200182815260200192505050602060405180830381600087803b158015611f4b57600080fd5b505af1158015611f5f573d6000803e3d6000fd5b505050506040513d6020811015611f7557600080fd5b810190808051906020019092919050505050816000016000848152602001908152602001600020600080820160006101000a81549073ffffffffffffffffffffffffffffffffffffffff0219169055600182016000905560028201600090556003820160009055600482016000905550505050505056fe6f6e6c7920566f6c6174696c65546f6b656e20616e6420537461626c65546f6b656e206163636570746564a165627a7a723058208d61c45f266fbd56c6116fc5be3a58a5f95fb7933c36e7e3c72fdae3cdb908e80029",
  "source": "pragma solidity ^0.5.2;\r\n\r\nimport \"openzeppelin-solidity/contracts/math/Math.sol\";\r\nimport \"openzeppelin-solidity/contracts/math/SafeMath.sol\";\r\nimport \"./OrderBook.sol\";\r\nimport \"./lib/BytesConvert.sol\";\r\nimport \"./lib/ABI.sol\";\r\n\r\ncontract PairEx is OrderBook {\r\n    using BytesConvert for *;\r\n    using ABI for *;\r\n\r\n    constructor () \r\n        public\r\n    {\r\n        Order memory order;\r\n        order.wantAmount = 1;\r\n        books[false].orders[bytes32(0)] = order;  \r\n        books[true].orders[bytes32(0)] = order;       \r\n    }\r\n\r\n    function getOrderType() \r\n        public\r\n        view\r\n        returns(bool)\r\n    {\r\n        address _sender = msg.sender;\r\n        require(_sender == address(token[true]) || _sender == address(token[false]), \"only VolatileToken and StableToken accepted\");\r\n        return _sender == address(token[true]);\r\n    }\r\n\r\n    // Token transfer's fallback\r\n    // bytes _data = uint256[2] = (wantAmount, assistingID)\r\n    // RULE : delegateCall never used\r\n    function tokenFallback(\r\n        address _from,\r\n        uint _value,\r\n        bytes calldata _data) \r\n        external\r\n    {\r\n        address maker = _from;\r\n        bool orderType = getOrderType();\r\n        uint256 haveAmount = _value;\r\n        uint256 wantAmount;\r\n        bytes32 assistingID;\r\n        (wantAmount, assistingID) = _data.length == 32 ? (abi.decode(_data, (uint256)), bytes32(0)) : abi.decode(_data, (uint256, bytes32));\r\n        bytes32 _orderID = insert(\r\n            orderType,\r\n            haveAmount,\r\n            wantAmount,\r\n            maker,\r\n            assistingID\r\n        );\r\n        pairing(orderType, _orderID);\r\n    }\r\n\r\n    function pairing(\r\n        bool _orderType,\r\n        bytes32 _orderID\r\n    )\r\n        private\r\n    {\r\n        bool _redroType = !_orderType;\r\n        OrderList storage orderBook = books[_orderType];\r\n        Order storage order = orderBook.orders[_orderID];\r\n        OrderList storage redroBook = books[_redroType];\r\n        bytes32 redroTopID = top(_redroType);\r\n\r\n        while (redroTopID[0] != 0) {\r\n            Order storage redro = redroBook.orders[redroTopID];\r\n            if (order.haveAmount.mul(redro.haveAmount) < order.wantAmount.mul(redro.wantAmount)) {\r\n                // not pairable\r\n                return;\r\n            }\r\n            uint256 orderPairableAmount = Math.min(order.haveAmount, redro.wantAmount);\r\n            order.wantAmount = order.wantAmount.mul(order.haveAmount.sub(orderPairableAmount)).div(order.haveAmount);\r\n            order.haveAmount = order.haveAmount.sub(orderPairableAmount);\r\n\r\n            uint256 redroPairableAmount = redro.haveAmount.mul(orderPairableAmount).div(redro.wantAmount);\r\n            redro.wantAmount = redro.wantAmount.mul(redro.haveAmount.sub(redroPairableAmount)).div(redro.haveAmount);\r\n            redro.haveAmount = redro.haveAmount.sub(redroPairableAmount);\r\n\r\n            token[_redroType].transfer(order.maker, redroPairableAmount);\r\n            token[_orderType].transfer(redro.maker, orderPairableAmount);\r\n            if (redro.haveAmount == 0 || redro.wantAmount == 0) {\r\n                _remove(_redroType, redroTopID);\r\n            }\r\n            redroTopID = top(_redroType);\r\n            if (order.haveAmount == 0 || order.wantAmount == 0) {\r\n                _remove(_orderType, _orderID);\r\n                return;\r\n            }\r\n        }\r\n        return;\r\n    }\r\n\r\n    // orderToFill(BuyType, 123) returns an SellType order to fill enough buying orders to burn as much as 123 StableToken.\r\n    // orderToFill(SellType, 456) returns an BuyType order to fill enough selling orders to create as much as 456 StableToken.\r\n    function orderToFill(\r\n        bool _orderType,\r\n        uint256 _stableTokenTarget\r\n    )\r\n        public\r\n        view\r\n        returns(uint256, uint256)\r\n    {\r\n        OrderList storage book = books[_orderType];\r\n        uint256 totalSTB;\r\n        uint256 totalVOL;\r\n        bytes32 cursor = top(_orderType);\r\n        while(cursor[0] != 0 && totalSTB < _stableTokenTarget) {\r\n            Order storage order = book.orders[cursor];\r\n            uint256 stb = _orderType ? order.haveAmount : order.wantAmount;\r\n            uint256 vol = _orderType ? order.wantAmount : order.haveAmount;\r\n            // break-point\r\n            if (totalSTB.add(stb) > _stableTokenTarget) {\r\n                uint256 remainSTB = _stableTokenTarget.sub(totalSTB);\r\n                uint256 remainVOL = vol.mul(remainSTB).div(stb);\r\n                return (totalVOL.add(remainVOL), totalSTB.add(remainSTB));\r\n            }\r\n            totalVOL = totalVOL.add(vol);\r\n            totalSTB = totalSTB.add(stb);\r\n            cursor = order.next;\r\n        }\r\n        //  Not enough order, return all we have\r\n        return (totalVOL, totalSTB);\r\n    }\r\n\r\n}",
  "sourcePath": "C:/Users/bestb/Desktop/workshop/nextyio/nytex/contracts/PairEx.sol",
  "compiler": {
    "name": "solc",
    "version": "0.5.5+commit.47a71e8f.Emscripten.clang"
  },
  "schemaVersion": "3.0.2",
  "updatedAt": "2019-04-11T04:23:08.971Z",
  "devdoc": {
    "methods": {}
  },
  "userdoc": {
    "methods": {}
  }
}