{
  "contractName": "NextyGovernance",
  "abi": [
    {
      "constant": true,
      "inputs": [
        {
          "name": "",
          "type": "uint256"
        }
      ],
      "name": "signers",
      "outputs": [
        {
          "name": "",
          "type": "address"
        }
      ],
      "payable": false,
      "stateMutability": "view",
      "type": "function"
    },
    {
      "constant": true,
      "inputs": [
        {
          "name": "",
          "type": "address"
        }
      ],
      "name": "account",
      "outputs": [
        {
          "name": "status",
          "type": "uint8"
        },
        {
          "name": "balance",
          "type": "uint256"
        },
        {
          "name": "signer",
          "type": "address"
        },
        {
          "name": "unlockHeight",
          "type": "uint256"
        }
      ],
      "payable": false,
      "stateMutability": "view",
      "type": "function"
    },
    {
      "constant": true,
      "inputs": [
        {
          "name": "",
          "type": "address"
        }
      ],
      "name": "signerCoinbase",
      "outputs": [
        {
          "name": "",
          "type": "address"
        }
      ],
      "payable": false,
      "stateMutability": "view",
      "type": "function"
    },
    {
      "constant": true,
      "inputs": [],
      "name": "stakeLockHeight",
      "outputs": [
        {
          "name": "",
          "type": "uint256"
        }
      ],
      "payable": false,
      "stateMutability": "view",
      "type": "function"
    },
    {
      "constant": true,
      "inputs": [],
      "name": "stakeRequire",
      "outputs": [
        {
          "name": "",
          "type": "uint256"
        }
      ],
      "payable": false,
      "stateMutability": "view",
      "type": "function"
    },
    {
      "constant": true,
      "inputs": [],
      "name": "token",
      "outputs": [
        {
          "name": "",
          "type": "address"
        }
      ],
      "payable": false,
      "stateMutability": "view",
      "type": "function"
    },
    {
      "inputs": [
        {
          "name": "_token",
          "type": "address"
        },
        {
          "name": "_stakeRequire",
          "type": "uint256"
        },
        {
          "name": "_stakeLockHeight",
          "type": "uint256"
        },
        {
          "name": "_signers",
          "type": "address[]"
        }
      ],
      "payable": false,
      "stateMutability": "nonpayable",
      "type": "constructor"
    },
    {
      "anonymous": false,
      "inputs": [
        {
          "indexed": false,
          "name": "_sealer",
          "type": "address"
        },
        {
          "indexed": false,
          "name": "_amount",
          "type": "uint256"
        }
      ],
      "name": "Deposited",
      "type": "event"
    },
    {
      "anonymous": false,
      "inputs": [
        {
          "indexed": false,
          "name": "_sealer",
          "type": "address"
        },
        {
          "indexed": false,
          "name": "_signer",
          "type": "address"
        }
      ],
      "name": "Joined",
      "type": "event"
    },
    {
      "anonymous": false,
      "inputs": [
        {
          "indexed": false,
          "name": "_sealer",
          "type": "address"
        },
        {
          "indexed": false,
          "name": "_signer",
          "type": "address"
        }
      ],
      "name": "Left",
      "type": "event"
    },
    {
      "anonymous": false,
      "inputs": [
        {
          "indexed": false,
          "name": "_sealer",
          "type": "address"
        },
        {
          "indexed": false,
          "name": "_amount",
          "type": "uint256"
        }
      ],
      "name": "Withdrawn",
      "type": "event"
    },
    {
      "anonymous": false,
      "inputs": [
        {
          "indexed": false,
          "name": "_sealer",
          "type": "address"
        }
      ],
      "name": "Banned",
      "type": "event"
    },
    {
      "anonymous": false,
      "inputs": [
        {
          "indexed": false,
          "name": "_sealer",
          "type": "address"
        }
      ],
      "name": "Unbanned",
      "type": "event"
    },
    {
      "constant": true,
      "inputs": [
        {
          "name": "_address",
          "type": "address"
        }
      ],
      "name": "isBanned",
      "outputs": [
        {
          "name": "",
          "type": "bool"
        }
      ],
      "payable": false,
      "stateMutability": "view",
      "type": "function"
    },
    {
      "constant": false,
      "inputs": [
        {
          "name": "_amount",
          "type": "uint256"
        }
      ],
      "name": "deposit",
      "outputs": [
        {
          "name": "",
          "type": "bool"
        }
      ],
      "payable": false,
      "stateMutability": "nonpayable",
      "type": "function"
    },
    {
      "constant": false,
      "inputs": [
        {
          "name": "_signer",
          "type": "address"
        }
      ],
      "name": "join",
      "outputs": [
        {
          "name": "",
          "type": "bool"
        }
      ],
      "payable": false,
      "stateMutability": "nonpayable",
      "type": "function"
    },
    {
      "constant": false,
      "inputs": [],
      "name": "leave",
      "outputs": [
        {
          "name": "",
          "type": "bool"
        }
      ],
      "payable": false,
      "stateMutability": "nonpayable",
      "type": "function"
    },
    {
      "constant": false,
      "inputs": [],
      "name": "withdraw",
      "outputs": [
        {
          "name": "",
          "type": "bool"
        }
      ],
      "payable": false,
      "stateMutability": "nonpayable",
      "type": "function"
    },
    {
      "constant": true,
      "inputs": [
        {
          "name": "_address",
          "type": "address"
        }
      ],
      "name": "getStatus",
      "outputs": [
        {
          "name": "",
          "type": "uint256"
        }
      ],
      "payable": false,
      "stateMutability": "view",
      "type": "function"
    },
    {
      "constant": true,
      "inputs": [
        {
          "name": "_address",
          "type": "address"
        }
      ],
      "name": "getBalance",
      "outputs": [
        {
          "name": "",
          "type": "uint256"
        }
      ],
      "payable": false,
      "stateMutability": "view",
      "type": "function"
    },
    {
      "constant": true,
      "inputs": [
        {
          "name": "_address",
          "type": "address"
        }
      ],
      "name": "getCoinbase",
      "outputs": [
        {
          "name": "",
          "type": "address"
        }
      ],
      "payable": false,
      "stateMutability": "view",
      "type": "function"
    },
    {
      "constant": true,
      "inputs": [
        {
          "name": "_address",
          "type": "address"
        }
      ],
      "name": "getUnlockHeight",
      "outputs": [
        {
          "name": "",
          "type": "uint256"
        }
      ],
      "payable": false,
      "stateMutability": "view",
      "type": "function"
    },
    {
      "constant": true,
      "inputs": [
        {
          "name": "_address",
          "type": "address"
        }
      ],
      "name": "isWithdrawable",
      "outputs": [
        {
          "name": "",
          "type": "bool"
        }
      ],
      "payable": false,
      "stateMutability": "view",
      "type": "function"
    }
  ],
  "bytecode": "0x60806040523480156200001157600080fd5b506040516200237838038062002378833981018060405260808110156200003757600080fd5b8101908080519060200190929190805190602001909291908051906020019092919080516401000000008111156200006e57600080fd5b828101905060208101848111156200008557600080fd5b8151856020820283011164010000000082111715620000a357600080fd5b505092919050505083600560006101000a81548173ffffffffffffffffffffffffffffffffffffffff021916908373ffffffffffffffffffffffffffffffffffffffff160217905550826003819055508160048190555060008090505b81518110156200037257600082828151811015156200011b57fe5b9060200190602002015190806001815401808255809150509060018203906000526020600020016000909192909190916101000a81548173ffffffffffffffffffffffffffffffffffffffff021916908373ffffffffffffffffffffffffffffffffffffffff1602179055505081818151811015156200019757fe5b90602001906020020151600160008484815181101515620001b457fe5b9060200190602002015173ffffffffffffffffffffffffffffffffffffffff1673ffffffffffffffffffffffffffffffffffffffff16815260200190815260200160002060006101000a81548173ffffffffffffffffffffffffffffffffffffffff021916908373ffffffffffffffffffffffffffffffffffffffff16021790555081818151811015156200024557fe5b906020019060200201516002600084848151811015156200026257fe5b9060200190602002015173ffffffffffffffffffffffffffffffffffffffff1673ffffffffffffffffffffffffffffffffffffffff16815260200190815260200160002060020160006101000a81548173ffffffffffffffffffffffffffffffffffffffff021916908373ffffffffffffffffffffffffffffffffffffffff1602179055506001600260008484815181101515620002fc57fe5b9060200190602002015173ffffffffffffffffffffffffffffffffffffffff1673ffffffffffffffffffffffffffffffffffffffff16815260200190815260200160002060000160006101000a81548160ff021916908360048111156200035f57fe5b0217905550808060010191505062000100565b5050505050611ff180620003876000396000f3fe6080604052600436106100e6576000357c0100000000000000000000000000000000000000000000000000000000900463ffffffff16806302a18484146100eb5780630a9a3f07146101545780632079fb9a146101e557806328ffe6c81461026057806330ccebb5146102c95780633ccfd60b1461032e57806355235d471461035d57806373b9aa91146103c25780638943b62c1461047657806397f735d5146105075780639b212d0114610570578063b6b55f251461059b578063c6908739146105ee578063d66d9e1914610619578063f8b2cb4f14610648578063fc0c546a146106ad575b600080fd5b3480156100f757600080fd5b5061013a6004803603602081101561010e57600080fd5b81019080803573ffffffffffffffffffffffffffffffffffffffff169060200190929190505050610704565b604051808215151515815260200191505060405180910390f35b34801561016057600080fd5b506101a36004803603602081101561017757600080fd5b81019080803573ffffffffffffffffffffffffffffffffffffffff169060200190929190505050610835565b604051808273ffffffffffffffffffffffffffffffffffffffff1673ffffffffffffffffffffffffffffffffffffffff16815260200191505060405180910390f35b3480156101f157600080fd5b5061021e6004803603602081101561020857600080fd5b81019080803590602001909291905050506108a1565b604051808273ffffffffffffffffffffffffffffffffffffffff1673ffffffffffffffffffffffffffffffffffffffff16815260200191505060405180910390f35b34801561026c57600080fd5b506102af6004803603602081101561028357600080fd5b81019080803573ffffffffffffffffffffffffffffffffffffffff1690602001909291905050506108df565b604051808215151515815260200191505060405180910390f35b3480156102d557600080fd5b50610318600480360360208110156102ec57600080fd5b81019080803573ffffffffffffffffffffffffffffffffffffffff169060200190929190505050611056565b6040518082815260200191505060405180910390f35b34801561033a57600080fd5b506103436110b7565b604051808215151515815260200191505060405180910390f35b34801561036957600080fd5b506103ac6004803603602081101561038057600080fd5b81019080803573ffffffffffffffffffffffffffffffffffffffff16906020019092919050505061147a565b6040518082815260200191505060405180910390f35b3480156103ce57600080fd5b50610411600480360360208110156103e557600080fd5b81019080803573ffffffffffffffffffffffffffffffffffffffff1690602001909291905050506114c6565b6040518085600481111561042157fe5b60ff1681526020018481526020018373ffffffffffffffffffffffffffffffffffffffff1673ffffffffffffffffffffffffffffffffffffffff16815260200182815260200194505050505060405180910390f35b34801561048257600080fd5b506104c56004803603602081101561049957600080fd5b81019080803573ffffffffffffffffffffffffffffffffffffffff169060200190929190505050611523565b604051808273ffffffffffffffffffffffffffffffffffffffff1673ffffffffffffffffffffffffffffffffffffffff16815260200191505060405180910390f35b34801561051357600080fd5b506105566004803603602081101561052a57600080fd5b81019080803573ffffffffffffffffffffffffffffffffffffffff169060200190929190505050611556565b604051808215151515815260200191505060405180910390f35b34801561057c57600080fd5b506105856115c7565b6040518082815260200191505060405180910390f35b3480156105a757600080fd5b506105d4600480360360208110156105be57600080fd5b81019080803590602001909291905050506115cd565b604051808215151515815260200191505060405180910390f35b3480156105fa57600080fd5b50610603611813565b6040518082815260200191505060405180910390f35b34801561062557600080fd5b5061062e611819565b604051808215151515815260200191505060405180910390f35b34801561065457600080fd5b506106976004803603602081101561066b57600080fd5b81019080803573ffffffffffffffffffffffffffffffffffffffff169060200190929190505050611c86565b6040518082815260200191505060405180910390f35b3480156106b957600080fd5b506106c2611cd2565b604051808273ffffffffffffffffffffffffffffffffffffffff1673ffffffffffffffffffffffffffffffffffffffff16815260200191505060405180910390f35b60006001600481111561071357fe5b600260008473ffffffffffffffffffffffffffffffffffffffff1673ffffffffffffffffffffffffffffffffffffffff16815260200190815260200160002060000160009054906101000a900460ff16600481111561076e57fe5b141580156107e1575060048081111561078357fe5b600260008473ffffffffffffffffffffffffffffffffffffffff1673ffffffffffffffffffffffffffffffffffffffff16815260200190815260200160002060000160009054906101000a900460ff1660048111156107de57fe5b14155b801561082e575043600260008473ffffffffffffffffffffffffffffffffffffffff1673ffffffffffffffffffffffffffffffffffffffff16815260200190815260200160002060030154105b9050919050565b6000600260008373ffffffffffffffffffffffffffffffffffffffff1673ffffffffffffffffffffffffffffffffffffffff16815260200190815260200160002060020160009054906101000a900473ffffffffffffffffffffffffffffffffffffffff169050919050565b6000818154811015156108b057fe5b906000526020600020016000915054906101000a900473ffffffffffffffffffffffffffffffffffffffff1681565b60006004808111156108ed57fe5b600260003373ffffffffffffffffffffffffffffffffffffffff1673ffffffffffffffffffffffffffffffffffffffff16815260200190815260200160002060000160009054906101000a900460ff16600481111561094857fe5b141515156109be576040517f08c379a00000000000000000000000000000000000000000000000000000000081526004018080602001828103825260078152602001807f62616e6e6564200000000000000000000000000000000000000000000000000081525060200191505060405180910390fd5b600160048111156109cb57fe5b600260003373ffffffffffffffffffffffffffffffffffffffff1673ffffffffffffffffffffffffffffffffffffffff16815260200190815260200160002060000160009054906101000a900460ff166004811115610a2657fe5b14151515610a9c576040517f08c379a000000000000000000000000000000000000000000000000000000000815260040180806020018281038252600f8152602001807f616c7265616479206a6f696e656420000000000000000000000000000000000081525060200191505060405180910390fd5b600354600260003373ffffffffffffffffffffffffffffffffffffffff1673ffffffffffffffffffffffffffffffffffffffff1681526020019081526020016000206001015410151515610b58576040517f08c379a000000000000000000000000000000000000000000000000000000000815260040180806020018281038252600e8152602001807f6e6f7420656e6f756768206e746600000000000000000000000000000000000081525060200191505060405180910390fd5b81600073ffffffffffffffffffffffffffffffffffffffff16600160008373ffffffffffffffffffffffffffffffffffffffff1673ffffffffffffffffffffffffffffffffffffffff16815260200190815260200160002060009054906101000a900473ffffffffffffffffffffffffffffffffffffffff1673ffffffffffffffffffffffffffffffffffffffff16141515610c5c576040517f08c379a00000000000000000000000000000000000000000000000000000000081526004018080602001828103825260158152602001807f636f696e6261736520616c72656164792075736564000000000000000000000081525060200191505060405180910390fd5b600073ffffffffffffffffffffffffffffffffffffffff168173ffffffffffffffffffffffffffffffffffffffff1614151515610d01576040517f08c379a000000000000000000000000000000000000000000000000000000000815260040180806020018281038252600b8152602001807f7369676e6572207a65726f00000000000000000000000000000000000000000081525060200191505060405180910390fd5b3073ffffffffffffffffffffffffffffffffffffffff168173ffffffffffffffffffffffffffffffffffffffff1614151515610da5576040517f08c379a00000000000000000000000000000000000000000000000000000000081526004018080602001828103825260178152602001807f73616d6520636f6e74726163742773206164647265737300000000000000000081525060200191505060405180910390fd5b3373ffffffffffffffffffffffffffffffffffffffff168173ffffffffffffffffffffffffffffffffffffffff1614151515610e49576040517f08c379a00000000000000000000000000000000000000000000000000000000081526004018080602001828103825260158152602001807f73616d652073656e64657227732061646472657373000000000000000000000081525060200191505060405180910390fd5b82600260003373ffffffffffffffffffffffffffffffffffffffff1673ffffffffffffffffffffffffffffffffffffffff16815260200190815260200160002060020160006101000a81548173ffffffffffffffffffffffffffffffffffffffff021916908373ffffffffffffffffffffffffffffffffffffffff1602179055506001600260003373ffffffffffffffffffffffffffffffffffffffff1673ffffffffffffffffffffffffffffffffffffffff16815260200190815260200160002060000160006101000a81548160ff02191690836004811115610f2957fe5b021790555033600160008573ffffffffffffffffffffffffffffffffffffffff1673ffffffffffffffffffffffffffffffffffffffff16815260200190815260200160002060006101000a81548173ffffffffffffffffffffffffffffffffffffffff021916908373ffffffffffffffffffffffffffffffffffffffff160217905550610fb583611cf8565b7f7702dccda75540ad1dca8d5276c048f4a5c0e4203f6da4be214bfb1901b203ea3384604051808373ffffffffffffffffffffffffffffffffffffffff1673ffffffffffffffffffffffffffffffffffffffff1681526020018273ffffffffffffffffffffffffffffffffffffffff1673ffffffffffffffffffffffffffffffffffffffff1681526020019250505060405180910390a16001915050919050565b60006110b0600260008473ffffffffffffffffffffffffffffffffffffffff1673ffffffffffffffffffffffffffffffffffffffff16815260200190815260200160002060000160009054906101000a900460ff16611d61565b9050919050565b60006004808111156110c557fe5b600260003373ffffffffffffffffffffffffffffffffffffffff1673ffffffffffffffffffffffffffffffffffffffff16815260200190815260200160002060000160009054906101000a900460ff16600481111561112057fe5b14151515611196576040517f08c379a00000000000000000000000000000000000000000000000000000000081526004018080602001828103825260078152602001807f62616e6e6564200000000000000000000000000000000000000000000000000081525060200191505060405180910390fd5b61119f33610704565b1515611213576040517f08c379a00000000000000000000000000000000000000000000000000000000081526004018080602001828103825260208152602001807f756e61626c6520746f20776974686472617720617420746865206d6f6d656e7481525060200191505060405180910390fd5b6000600260003373ffffffffffffffffffffffffffffffffffffffff1673ffffffffffffffffffffffffffffffffffffffff1681526020019081526020016000206001015490506000600260003373ffffffffffffffffffffffffffffffffffffffff1673ffffffffffffffffffffffffffffffffffffffff168152602001908152602001600020600101819055506003600260003373ffffffffffffffffffffffffffffffffffffffff1673ffffffffffffffffffffffffffffffffffffffff16815260200190815260200160002060000160006101000a81548160ff0219169083600481111561130157fe5b0217905550600560009054906101000a900473ffffffffffffffffffffffffffffffffffffffff1673ffffffffffffffffffffffffffffffffffffffff1663a9059cbb33836040518363ffffffff167c0100000000000000000000000000000000000000000000000000000000028152600401808373ffffffffffffffffffffffffffffffffffffffff1673ffffffffffffffffffffffffffffffffffffffff16815260200182815260200192505050602060405180830381600087803b1580156113cb57600080fd5b505af11580156113df573d6000803e3d6000fd5b505050506040513d60208110156113f557600080fd5b8101908080519060200190929190505050507f7084f5476618d8e60b11ef0d7d3f06914655adb8793e28ff7f018d4c76d505d53382604051808373ffffffffffffffffffffffffffffffffffffffff1673ffffffffffffffffffffffffffffffffffffffff1681526020018281526020019250505060405180910390a1600191505090565b6000600260008373ffffffffffffffffffffffffffffffffffffffff1673ffffffffffffffffffffffffffffffffffffffff168152602001908152602001600020600301549050919050565b60026020528060005260406000206000915090508060000160009054906101000a900460ff16908060010154908060020160009054906101000a900473ffffffffffffffffffffffffffffffffffffffff16908060030154905084565b60016020528060005260406000206000915054906101000a900473ffffffffffffffffffffffffffffffffffffffff1681565b600060048081111561156457fe5b600260008473ffffffffffffffffffffffffffffffffffffffff1673ffffffffffffffffffffffffffffffffffffffff16815260200190815260200160002060000160009054906101000a900460ff1660048111156115bf57fe5b149050919050565b60045481565b6000600560009054906101000a900473ffffffffffffffffffffffffffffffffffffffff1673ffffffffffffffffffffffffffffffffffffffff166323b872dd3330856040518463ffffffff167c0100000000000000000000000000000000000000000000000000000000028152600401808473ffffffffffffffffffffffffffffffffffffffff1673ffffffffffffffffffffffffffffffffffffffff1681526020018373ffffffffffffffffffffffffffffffffffffffff1673ffffffffffffffffffffffffffffffffffffffff1681526020018281526020019350505050602060405180830381600087803b1580156116c857600080fd5b505af11580156116dc573d6000803e3d6000fd5b505050506040513d60208110156116f257600080fd5b81019080805190602001909291905050505061175982600260003373ffffffffffffffffffffffffffffffffffffffff1673ffffffffffffffffffffffffffffffffffffffff16815260200190815260200160002060010154611e0c90919063ffffffff16565b600260003373ffffffffffffffffffffffffffffffffffffffff1673ffffffffffffffffffffffffffffffffffffffff168152602001908152602001600020600101819055507f2da466a7b24304f47e87fa2e1e5a81b9831ce54fec19055ce277ca2f39ba42c43383604051808373ffffffffffffffffffffffffffffffffffffffff1673ffffffffffffffffffffffffffffffffffffffff1681526020018281526020019250505060405180910390a160019050919050565b60035481565b600060048081111561182757fe5b600260003373ffffffffffffffffffffffffffffffffffffffff1673ffffffffffffffffffffffffffffffffffffffff16815260200190815260200160002060000160009054906101000a900460ff16600481111561188257fe5b141515156118f8576040517f08c379a00000000000000000000000000000000000000000000000000000000081526004018080602001828103825260078152602001807f62616e6e6564200000000000000000000000000000000000000000000000000081525060200191505060405180910390fd5b6001600481111561190557fe5b600260003373ffffffffffffffffffffffffffffffffffffffff1673ffffffffffffffffffffffffffffffffffffffff16815260200190815260200160002060000160009054906101000a900460ff16600481111561196057fe5b1415156119d5576040517f08c379a000000000000000000000000000000000000000000000000000000000815260040180806020018281038252600b8152602001807f6e6f74206a6f696e65642000000000000000000000000000000000000000000081525060200191505060405180910390fd5b6000600260003373ffffffffffffffffffffffffffffffffffffffff1673ffffffffffffffffffffffffffffffffffffffff16815260200190815260200160002060020160009054906101000a900473ffffffffffffffffffffffffffffffffffffffff1690506000600260003373ffffffffffffffffffffffffffffffffffffffff1673ffffffffffffffffffffffffffffffffffffffff16815260200190815260200160002060020160006101000a81548173ffffffffffffffffffffffffffffffffffffffff021916908373ffffffffffffffffffffffffffffffffffffffff16021790555060028060003373ffffffffffffffffffffffffffffffffffffffff1673ffffffffffffffffffffffffffffffffffffffff16815260200190815260200160002060000160006101000a81548160ff02191690836004811115611b1c57fe5b0217905550611b3643600454611e0c90919063ffffffff16565b600260003373ffffffffffffffffffffffffffffffffffffffff1673ffffffffffffffffffffffffffffffffffffffff16815260200190815260200160002060030181905550600160008273ffffffffffffffffffffffffffffffffffffffff1673ffffffffffffffffffffffffffffffffffffffff16815260200190815260200160002060006101000a81549073ffffffffffffffffffffffffffffffffffffffff0219169055611be781611e2d565b7f4b9ee4dd061ba088b22898a02491f3896a4a580c6cda8783ca579ee159f8e8c53382604051808373ffffffffffffffffffffffffffffffffffffffff1673ffffffffffffffffffffffffffffffffffffffff1681526020018273ffffffffffffffffffffffffffffffffffffffff1673ffffffffffffffffffffffffffffffffffffffff1681526020019250505060405180910390a1600191505090565b6000600260008373ffffffffffffffffffffffffffffffffffffffff1673ffffffffffffffffffffffffffffffffffffffff168152602001908152602001600020600101549050919050565b600560009054906101000a900473ffffffffffffffffffffffffffffffffffffffff1681565b60008190806001815401808255809150509060018203906000526020600020016000909192909190916101000a81548173ffffffffffffffffffffffffffffffffffffffff021916908373ffffffffffffffffffffffffffffffffffffffff1602179055505050565b6000806004811115611d6f57fe5b826004811115611d7b57fe5b1415611d8a5760009050611e07565b60016004811115611d9757fe5b826004811115611da357fe5b1415611db25760019050611e07565b60026004811115611dbf57fe5b826004811115611dcb57fe5b1415611dda5760029050611e07565b60036004811115611de757fe5b826004811115611df357fe5b1415611e025760039050611e07565b607f90505b919050565b6000808284019050838110151515611e2357600080fd5b8091505092915050565b60008090505b600080549050811015611f6f57600081815481101515611e4f57fe5b9060005260206000200160009054906101000a900473ffffffffffffffffffffffffffffffffffffffff1673ffffffffffffffffffffffffffffffffffffffff168273ffffffffffffffffffffffffffffffffffffffff161415611f62576000600160008054905003815481101515611ec457fe5b9060005260206000200160009054906101000a900473ffffffffffffffffffffffffffffffffffffffff16600082815481101515611efe57fe5b9060005260206000200160006101000a81548173ffffffffffffffffffffffffffffffffffffffff021916908373ffffffffffffffffffffffffffffffffffffffff1602179055506000805480919060019003611f5b9190611f74565b5050611f71565b8080600101915050611e33565b505b50565b815481835581811115611f9b57818360005260206000209182019101611f9a9190611fa0565b5b505050565b611fc291905b80821115611fbe576000816000905550600101611fa6565b5090565b9056fea165627a7a723058206143ef90afca8247a3e78d5c7596604eb24e865d335d5a75dd279ae82b81576e0029",
  "source": "pragma solidity ^0.5.0;\r\n\r\nimport \"node_modules/@openzeppelin/contracts/math/SafeMath.sol\";\r\nimport \"node_modules/@openzeppelin/contracts/token/ERC20/IERC20.sol\";\r\n\r\n/**\r\n * @title Nexty sealers management smart contract\r\n */\r\ncontract NextyGovernance {\r\n    using SafeMath for uint256;\r\n\r\n    // zero address\r\n    address constant ZERO_ADDRESS = address(0x0);\r\n\r\n    enum Status {\r\n        PENDING_ACTIVE,     // Sealer deposited enough NTFs into registration contract successfully.\r\n\r\n        ACTIVE,             // Sealer send request to become a sealer \r\n                            // and added into activation sealer set successfully\r\n\r\n        PENDING_WITHDRAW,   // Sealer send request to exit from activation sealer set successfully. \r\n                            // Sealer casted out of activation sealer set\r\n\r\n        WITHDRAWN,          // Sealer already withdrawn their deposit NTFs successfully. \r\n                            // They can only make withdrawal after withdrawal period.\r\n\r\n        PENALIZED           //Sealer marked as penalized node (update by consensus or voting result via dapp) \r\n                            //and cannot become active sealer and cannot withdraw balance neither.\r\n    }\r\n\r\n    struct Account {\r\n        Status status;\r\n        // ntf amount deposited\r\n        uint256 balance;\r\n        // delegated address to seal blocks\r\n        address signer;\r\n        // withdrawable block number after leaving\r\n        uint256 unlockHeight;\r\n    }\r\n\r\n    // Consensus variables\r\n\r\n    // index = 0\r\n    // signers array\r\n    address[] public signers;\r\n\r\n    // index = 1\r\n    // signer => coinbase (beneficiary address) map\r\n    mapping(address => address) public signerCoinbase;\r\n\r\n    // End of consensus variables\r\n\r\n    // coinbase => NTF Account map\r\n    mapping(address => Account) public account;\r\n\r\n    // minimum of deposited NTF to join\r\n    uint256 public stakeRequire;\r\n    // minimum number of blocks signer has to wait from leaving block to withdraw the fund\r\n    uint256 public stakeLockHeight;\r\n\r\n    // NTF token contract, unit used to join Nexty sealers\r\n    IERC20 public token;\r\n\r\n    event Deposited(address _sealer, uint _amount);\r\n    event Joined(address _sealer, address _signer);\r\n    event Left(address _sealer, address _signer);\r\n    event Withdrawn(address _sealer, uint256 _amount);\r\n    event Banned(address _sealer);\r\n    event Unbanned(address _sealer);\r\n\r\n    /**\r\n    * Check if address is a valid destination to transfer tokens to\r\n    * - must not be zero address\r\n    * - must not be the token address\r\n    * - must not be the sender's address\r\n    */\r\n    modifier validSigner(address _signer) {\r\n        require(signerCoinbase[_signer] == ZERO_ADDRESS, \"coinbase already used\");\r\n        require(_signer != ZERO_ADDRESS, \"signer zero\");\r\n        require(_signer != address(this), \"same contract's address\");\r\n        require(_signer != msg.sender, \"same sender's address\");\r\n        _;\r\n    }\r\n\r\n    modifier notBanned() {\r\n        require(account[msg.sender].status != Status.PENALIZED, \"banned \");\r\n        _;\r\n    }\r\n\r\n    modifier joinable() {\r\n        require(account[msg.sender].status != Status.ACTIVE, \"already joined \");\r\n        require(account[msg.sender].balance >= stakeRequire, \"not enough ntf\");\r\n        _;\r\n    }\r\n\r\n    modifier leaveable() {\r\n        require(account[msg.sender].status == Status.ACTIVE, \"not joined \");\r\n        _;\r\n    }\r\n\r\n    modifier withdrawable() {\r\n        require(isWithdrawable(msg.sender), \"unable to withdraw at the moment\");\r\n        _;\r\n    }\r\n\r\n    /**\r\n    * contract initialize\r\n    */\r\n    constructor(address _token, uint256 _stakeRequire, uint256 _stakeLockHeight, address[] memory _signers) public {\r\n        token = IERC20(_token);\r\n        stakeRequire = _stakeRequire;\r\n        stakeLockHeight = _stakeLockHeight;\r\n        for (uint i = 0; i < _signers.length; i++) {\r\n            signers.push(_signers[i]);\r\n            signerCoinbase[_signers[i]] = _signers[i];\r\n            account[_signers[i]].signer = _signers[i];\r\n            account[_signers[i]].status = Status.ACTIVE;    \r\n        }\r\n    }\r\n\r\n    // Get ban status of a sealer's address\r\n    function isBanned(address _address) public view returns(bool) {\r\n        return (account[_address].status == Status.PENALIZED);\r\n    }\r\n\r\n    ////////////////////////////////\r\n\r\n    function addSigner(address _signer) internal {\r\n        signers.push(_signer);\r\n    }\r\n\r\n    function removeSigner(address _signer) internal {\r\n        for (uint i = 0; i < signers.length; i++) {\r\n            if (_signer == signers[i]) {\r\n                signers[i] = signers[signers.length - 1];\r\n                signers.length--;\r\n                return;\r\n            }\r\n        }\r\n    }\r\n\r\n    /**\r\n    * Transfer the NTF from token holder to registration contract. \r\n    * Sealer might have to approve contract to transfer an amount of NTF before calling this function.\r\n    * @param _amount NTF Tokens to deposit\r\n    */\r\n    function deposit(uint256 _amount) public returns (bool) {\r\n        token.transferFrom(msg.sender, address(this), _amount);\r\n        account[msg.sender].balance = (account[msg.sender].balance).add(_amount);\r\n        emit Deposited(msg.sender, _amount);\r\n        return true;\r\n    }\r\n    \r\n    /**\r\n    * To allow deposited NTF participate joining in as sealer. \r\n    * Participate already must deposit enough NTF via Deposit function. \r\n    * It takes signer as parameter.\r\n    * @param _signer Destination address\r\n    */\r\n    function join(address _signer) public notBanned joinable validSigner(_signer) returns (bool) {\r\n        account[msg.sender].signer = _signer;\r\n        account[msg.sender].status = Status.ACTIVE;\r\n        signerCoinbase[_signer] = msg.sender;\r\n        addSigner(_signer);\r\n        emit Joined(msg.sender, _signer);\r\n        return true;\r\n    }\r\n\r\n    /**\r\n    * Request to exit out of activation sealer set\r\n    */\r\n    function leave() public notBanned leaveable returns (bool) {\r\n        address _signer = account[msg.sender].signer;\r\n\r\n        account[msg.sender].signer = ZERO_ADDRESS;\r\n        account[msg.sender].status = Status.PENDING_WITHDRAW;\r\n        account[msg.sender].unlockHeight = stakeLockHeight.add(block.number);\r\n        delete signerCoinbase[_signer];\r\n        removeSigner(_signer);\r\n        emit Left(msg.sender, _signer);\r\n        return true;\r\n    }\r\n\r\n    /**\r\n    * To withdraw sealers NTF balance when they already exited and after withdrawal period.\r\n    */\r\n    function withdraw() public notBanned withdrawable returns (bool) {\r\n        uint256 amount = account[msg.sender].balance;\r\n        account[msg.sender].balance = 0;\r\n        account[msg.sender].status = Status.WITHDRAWN;        \r\n        token.transfer(msg.sender, amount);\r\n        emit Withdrawn(msg.sender, amount);\r\n        return true;\r\n    }\r\n\r\n    function getStatusCode(Status _status) private pure returns(uint256){\r\n        if (_status == Status.PENDING_ACTIVE) return 0;\r\n        if (_status == Status.ACTIVE) return 1;\r\n        if (_status == Status.PENDING_WITHDRAW) return 2;\r\n        if (_status == Status.WITHDRAWN) return 3;\r\n        return 127;\r\n    }\r\n\r\n    function getStatus(address _address) public view returns(uint256) {\r\n        return getStatusCode(account[_address].status);\r\n    }\r\n\r\n    function getBalance(address _address) public view returns(uint256) {\r\n        return account[_address].balance;\r\n    }  \r\n\r\n    function getCoinbase(address _address) public view returns(address) {\r\n        return account[_address].signer;\r\n    }  \r\n\r\n    function getUnlockHeight(address _address) public view returns(uint256) {\r\n        return account[_address].unlockHeight;\r\n    }\r\n\r\n    function isWithdrawable(address _address) public view returns(bool) {\r\n        return \r\n        (account[_address].status != Status.ACTIVE) && \r\n        (account[_address].status != Status.PENALIZED) && \r\n        (account[_address].unlockHeight < block.number);\r\n    }\r\n}",
  "sourcePath": "C:/Users/84931/Desktop/nexty/nexty-governance/contracts/governance/NextyGovernance.sol",
  "compiler": {
    "name": "solc",
    "version": "0.5.0+commit.1d4f565a.Emscripten.clang"
  },
  "schemaVersion": "3.0.2",
  "updatedAt": "2019-06-02T15:11:50.219Z",
  "devdoc": {
    "methods": {
      "deposit(uint256)": {
        "params": {
          "_amount": "NTF Tokens to deposit\r"
        }
      },
      "join(address)": {
        "params": {
          "_signer": "Destination address\r"
        }
      }
    },
    "title": "Nexty sealers management smart contract\r"
  },
  "userdoc": {
    "methods": {
      "constructor": "contract initialize\r",
      "deposit(uint256)": {
        "notice": "Transfer the NTF from token holder to registration contract. \r Sealer might have to approve contract to transfer an amount of NTF before calling this function.\r"
      },
      "join(address)": {
        "notice": "To allow deposited NTF participate joining in as sealer. \r Participate already must deposit enough NTF via Deposit function. \r It takes signer as parameter.\r"
      },
      "leave()": {
        "notice": "Request to exit out of activation sealer set\r"
      },
      "withdraw()": {
        "notice": "To withdraw sealers NTF balance when they already exited and after withdrawal period.\r"
      }
    }
  }
}